:020000040800F2
:100000000028002051110008310F0008370F0008A8
:100010003D0F0008430F0008490F000800000000D2
:100020000000000000000000000000004F0F00086A
:100030005B0F000800000000670F0008730F000846
:1000400099110008991100089911000899110008E8
:1000500099110008991100089911000899110008D8
:1000600099110008991100089911000899110008C8
:1000700099110008991100089911000899110008B8
:1000800099110008991100089911000899110008A8
:100090009911000899110008991100089911000898
:1000A0009911000899110008991100089911000888
:1000B000810F000899110008000000009911000844
:1000C00099110008000000000000000099110008CC
:1000D00000000000991100089911000800000000BC
:1000E00099110008991100089911000800000000FA
:1000F0000000000000000000000000000000000000
:0C01000000000000000000005FF808F1A3
:10010C0010B5054C237833B9044B13B10448AFF345
:10011C0000800123237010BD20000020000000008F
:10012C00F027000808B5034B1BB103490348AFF394
:10013C00008008BD0000000024000020F02700080B
:10014C0080B582B000AF0023FB7185E0FB79474A94
:10015C00D35C022B6BD0022B78DC002B02D0012B52
:10016C004DD073E0FB79184600F020F90346002BC4
:10017C003DD0FB793D4A0121D154FB79022B29D08A
:10018C00022B36DC002B02D0012B11D031E0384B86
:10019C0000221A60374B1B68032B03DD354B012201
:1001AC001A602BE0334B1B680133324A136025E095
:1001BC00304B1B68012B1EDD2F4B1B68622B03DDA4
:1001CC002D4B01221A6019E02B4B1B6801332A4A74
:1001DC00136013E0274B1B68012B0EDD254B1B68AE
:1001EC00023B254A1268254941F8232005E000BF4F
:1001FC002FE000BF2DE000BF2BE000BF29E0FB7912
:10020C00184600F0D3F80346002B04D1FB79174AAB
:10021C000021D1541CE0FB79184600F0E1F80346AC
:10022C00002B15D0FB79114A0221D15410E0FB7937
:10023C00184600F0BBF80346002B03D1FB790B4AA0
:10024C000021D154FB79002B00BF02E000BF00E07D
:10025C0000BFFB790133FB71FB79022B7FF676AF84
:10026C0000BF00BF0837BD4680BD00BF5C0000204A
:10027C00400000203C00002058000020000000201E
:10028C0080B582B000AF00237B607AE0414A7B6886
:10029C0013441978404A7B6813440A461A707B68E9
:1002AC00022B23D07B68022B2DD87B68002B03D02C
:1002BC007B68012B0DD026E04FF40051374801F03C
:1002CC0051FA03461946334A7B6813440A461A709E
:1002DC001AE04FF48041314801F044FA03461946C4
:1002EC002C4A7B6813440A461A700DE04FF4004107
:1002FC002A4801F037FA03461946264A7B6813440C
:10030C000A461A7000E000BF224A7B6813441A7830
:10031C0021497B680B441B789A422FD11D4A7B687C
:10032C00134419781E4A7B6813440A461A701C4AF7
:10033C007B6813441B78002B16D11A4A7B6832F861
:10034C001330632B0AD8174A7B6832F81330013309
:10035C0099B2144A7B6822F813100FE0124A7B689A
:10036C00134401221A7009E00E4A7B68002122F81E
:10037C0013100D4A7B68134400221A707B680133FA
:10038C007B607B68022B81D900BF00BF0837BD465C
:10039C0080BD00BF6400002068000020000C0140FC
:1003AC0060000020700000206C00002080B483B03E
:1003BC0000AF0346FB71FB79022B01D9002307E048
:1003CC00FB79064AD35C002B0CBF01230023DBB264
:1003DC0018460C37BD4680BC704700BF600000203B
:1003EC0080B483B000AF0346FB71FB79022B01D9BB
:1003FC00FF2307E0FB79064AD35C012B0CBF0123DA
:10040C000023DBB218460C37BD4680BC704700BFDA
:10041C006C00002080B582B000AF78607B68092B3F
:10042C007FD801A252F823F05D0400087304000881
:10043C00890400089F040008B5040008CB040008D8
:10044C00E1040008F70400080D0500081905000870
:10045C0000227E21354801F09CF90122802133488D
:10046C0001F097F95EE00122F221304801F091F998
:10047C0000220C212D4801F08CF953E00022B6210A
:10048C002A4801F086F901224821284801F081F917
:10049C0048E000229E21254801F07BF901226021D1
:1004AC00224801F076F93DE0012232211F4801F08B
:1004BC0070F90022CC211D4801F06BF932E00022CA
:1004CC00DA211A4801F065F901222421174801F0BC
:1004DC0060F927E00022FA21144801F05AF90122B0
:1004EC000421124801F055F91CE000220E210F489E
:1004FC0001F04FF90122F0210C4801F04AF911E00A
:10050C000022FE21094801F044F90BE00022DE2113
:10051C00064801F03EF901222021044801F039F986
:10052C0000E000BF00BF0837BD4680BD0008014099
:10053C0080B582B000AF78607B68092B00F29480A4
:10054C0001A252F823F000BF7D05000897050008B2
:10055C00B1050008CB050008E5050008FF050008FB
:10056C0019060008330600084D0600085B06000853
:10057C0000224FF47C513F4801F00BF901224FF45B
:10058C0080413C4801F005F96FE001224FF4F24143
:10059C00384801F0FEF800224FF4C061354801F0F4
:1005AC00F8F862E000224FF4B641324801F0F1F85D
:1005BC0001224FF410512F4801F0EBF855E00022C6
:1005CC004FF49E412B4801F0E4F801224FF44051C6
:1005DC00284801F0DEF848E001224FF4C8512548C4
:1005EC0001F0D7F800224FF4CC41224801F0D1F8A9
:1005FC003BE000224FF4DA411E4801F0CAF8012218
:10060C004FF490511B4801F0C4F82EE000224FF437
:10061C00FA41184801F0BDF801224FF40071154859
:10062C0001F0B7F821E000224FF4E061114801F02D
:10063C00B0F801224FF4F0410E4801F0AAF814E092
:10064C0000224FF4FE410B4801F0A3F80DE000220C
:10065C004FF4DE41074801F09CF801224FF4805121
:10066C00044801F096F800E000BF00BF0837BD4613
:10067C0080BD00BF0008014080B582B000AF78603B
:10068C0039607B68022B29D07B68022B36DC7B68B7
:10069C00002B03D07B68012B10D02FE0002201210E
:1006AC00384801F076F801220221364801F071F841
:1006BC0001220421334801F06CF820E001220121D1
:1006CC00304801F066F8002202212E4801F061F852
:1006DC00012204212B4801F05CF810E001220121D9
:1006EC00284801F056F801220221264801F051F861
:1006FC0000220421234801F04CF800E000BF3B68C5
:10070C00022B29D03B68022B36DC3B68002B03D034
:10071C003B68012B10D02FE000220821194801F072
:10072C0038F801221021174801F033F8012220215A
:10073C00144801F02EF820E001220821114801F0A4
:10074C0028F8002210210F4801F023F80122202163
:10075C000C4801F01EF810E001220821094801F0B4
:10076C0018F801221021074801F013F8002220216B
:10077C00044801F00EF800E000BF00BF0837BD468A
:10078C0080BD00BF000C014080B582B000AF786026
:10079C0039607B68022B27D07B68022B33DC7B68AB
:1007AC00002B03D07B68012B0FD02CE001213648A5
:1007BC0001F007F801220221334800F0EAFF012280
:1007CC000421314800F0E5FF1EE0012201212E48F2
:1007DC0000F0DFFF02212C4800F0F3FF012204217E
:1007EC00294800F0D6FF0FE001220121264800F035
:1007FC00D0FF01220221244800F0CBFF0421224823
:10080C0000F0DFFF00E000BF3B68022B27D03B6805
:10081C00022B33DC3B68002B03D03B68012B0FD041
:10082C002CE00821184800F0CCFF012210211648BA
:10083C0000F0AFFF01222021134800F0AAFF1EE0B8
:10084C0001220821104800F0A4FF10210E4800F0EE
:10085C00B8FF012220210C4800F09BFF0FE0012281
:10086C000821094800F095FF01221021064800F0EC
:10087C0090FF2021044800F0A4FF00E000BF00BF5F
:10088C000837BD4680BD00BF000C014080B584B068
:10089C0000AFF860B9607A60FB68002B03D0FB688E
:1008AC00012B2BD04BE000224FF4A071264800F016
:1008BC0070FF01224FF42071234800F06AFFBA68E0
:1008CC00224B83FB02139910D317C91A0B469B00BA
:1008DC000B445B00D11A0846FFF79CFD7A681B4B52
:1008EC0083FB02139910D317C91A0B469B000B44B8
:1008FC005B00D11A0846FFF71BFE20E001224FF4E3
:10090C00A071114800F045FF00224FF420710E48F1
:10091C0000F03FFFBB680D4A82FB03129210DB17FD
:10092C00D31A1846FFF776FD7B68084A82FB031240
:10093C009210DB17D31A1846FFF7FAFD00BF00BF61
:10094C001037BD4680BD00BF000C0140676666666F
:10095C0080B500AF00F01CFC00F048F800F0CEF8B9
:10096C0000F080F81C4801F07DFB642000F046FB91
:10097C004FF47A7000F00EFB00F05AFB0346012B8B
:10098C0008D14FF40041154800F01BFF4FF47A706A
:10099C0000F000FB00F070FB0346012B17D1104B4D
:1009AC001B68104A1168104A12681846FFF76EFF50
:1009BC000B4B1B6801330A4A1360094B1B68012B54
:1009CC0002DD074B00221A60642000F017FBFFF7D2
:1009DC00B7FB00F0FDF8CFE79000002000080140C5
:1009EC00540000204C0000205000002080B590B036
:1009FC0000AF07F1180328220021184601F0EAFE87
:100A0C003B1D00221A605A609A60DA601A61022358
:100A1C00BB610123BB621023FB6200237B6307F1E4
:100A2C001803184600F0E6FE0346002B01D000F038
:100A3C00C9F80F237B600023BB600023FB600023FD
:100A4C003B6100237B613B1D0021184601F052F9EC
:100A5C000346002B01D000F0B5F800BF4037BD466F
:100A6C0080BD000080B586B000AF07F108030022FE
:100A7C001A605A609A60DA603B4600221A605A602B
:100A8C001D4B4FF080421A601B4B41F63F725A606F
:100A9C00194B00229A60184B0922DA60164B00227F
:100AAC001A61154B00229A61134801F08BFA034628
:100ABC00002B01D000F086F84FF48053BB6007F197
:100ACC00080319460C4801F021FC0346002B01D009
:100ADC0000F078F800233B6000237B603B4619460E
:100AEC00054801F0E9FD0346002B01D000F06AF83F
:100AFC0000BF1837BD4680BD9000002080B586B081
:100B0C0000AF07F1080300221A605A609A60DA609D
:100B1C00294B9B69284A43F004039361264B9B693C
:100B2C0003F004037B607B68234B9B69224A43F0F0
:100B3C0008039361204B9B6903F008033B603B68FF
:100B4C0000224FF6FE711D4800F023FE002240F2F9
:100B5C00FF311B4800F01DFE4FF6FE73BB600123F6
:100B6C00FB6000233B6102237B6107F108031946FC
:100B7C00124800F07DFC40F2FF33BB600123FB60A8
:100B8C0000233B6102237B6107F1080319460C48E3
:100B9C0000F06EFC4FF46043BB600023FB6001234C
:100BAC003B6107F108031946054800F061FC00BFE2
:100BBC001837BD4680BD00BF001002400008014040
:100BCC00000C014080B400AF72B600BFFEE700001D
:100BDC0080B500AF9F4B1B68013B032B00F23781A4
:100BEC0001A252F823F000BF050C0008EB0C000822
:100BFC00650D0008DF0D0008974B1B68002B23D1F7
:100C0C00964B00221A60964B01221A60934B1B687C
:100C1C00944A52F82330944A1360914B1B68914AC2
:100C2C0052F82330914A13608B4B01221A608B4B84
:100C3C001B688B4A126811461846FFF71DFD4FF4CE
:100C4C007A7000F0C1F901E100F004FA0346012BBF
:100C5C0040F0FC80844B1B68013B834A1360834B40
:100C6C001B68013B814A13607F4B1B68002B12DC15
:100C7C007A4B1B680133794A1360784B1B68022B43
:100C8C0002DD764B00221A60744B1B68754A52F8D1
:100C9C002330754A1360754B1B68002B12DC704BAC
:100CAC001B6801336E4A13606D4B1B68022B02DD0F
:100CBC006B4B00221A606A4B1B686A4A52F823304D
:100CCC006A4A1360654B1B68654A126811461846E0
:100CDC00FFF7D2FC4FF47A7000F076F9B6E05E4B79
:100CEC001B68002B1DD15D4B00221A605C4B00224F
:100CFC001A605A4B1B685B4A52F823305C4A1360EB
:100D0C00554B01221A60554B1B68554A1268114607
:100D1C001846FFF7B1FC574B1B68184600F054F906
:100D2C0011E000F097F90346012B0CD14B4B1B68DB
:100D3C004B4A126811461846FFF726FD4D4B1B68AF
:100D4C00184600F041F94A4B1B68474A1360414B67
:100D5C001B68464A13607AE03F4B1B68002B1DD181
:100D6C003E4B01221A603E4B01221A603B4B1B6822
:100D7C003C4A52F823303E4A1360374B01221A602A
:100D8C00364B1B68364A126811461846FFF774FC3E
:100D9C00384B1B68184600F017F911E000F05AF9AF
:100DAC000346012B0CD12D4B1B682D4A12681146A2
:100DBC001846FFF7E9FC2F4B1B68184600F004F9A6
:100DCC002B4B1B68284A1360224B1B68274A136065
:100DDC003DE0214B1B68002B1DD1204B02221A60D9
:100DEC001F4B02221A601D4B1B681E4A52F82330FF
:100DFC001F4A1360184B01221A60184B1B68184AC3
:100E0C00126811461846FFF737FC1A4B1B68184638
:100E1C0000F0DAF811E000F01DF90346012B0CD1BB
:100E2C000E4B1B680E4A126811461846FFF7ACFCB5
:100E3C00104B1B68184600F0C7F80D4B1B680A4A8C
:100E4C001360044B1B68094A136000E000BF00BF2D
:100E5C0080BD00BF3C00002040000020440000206A
:100E6C0048000020000000204C0000205000002012
:100E7C00580000200C00002080B485B000AF154B4A
:100E8C009B69144A43F001039361124B9B6903F075
:100E9C000103BB60BB680F4BDB690E4A43F0805308
:100EAC00D3610C4BDB6903F080537B607B680A4B8E
:100EBC005B68FB60FB6823F0E063FB60FB6843F05E
:100ECC008063FB60044AFB68536000BF1437BD4667
:100EDC0080BC7047001002400000014080B584B017
:100EEC0000AF78607B681B68B3F1804F13D10C4B5B
:100EFC00DB690B4A43F00103D361094BDB6903F057
:100F0C000103FB60FB68002200211C2000F079FA31
:100F1C001C2000F092FA00BF1037BD4680BD00BF08
:100F2C000010024080B400AFFEE780B400AFFEE7D3
:100F3C0080B400AFFEE780B400AFFEE780B400AF32
:100F4C00FEE780B400AF00BFBD4680BC704780B4E4
:100F5C0000AF00BFBD4680BC704780B400AF00BF7F
:100F6C00BD4680BC704780B500AF00F057F900BF9C
:100F7C0080BD000080B500AF024801F0BFF800BF93
:100F8C0080BD00BF9000002080B400AF00BFBD4604
:100F9C0080BC704780B483B000AF7860074B1B688F
:100FAC007A6892FBF3F3064A1360064B00221A6030
:100FBC0000BF0C37BD4680BC704700BF140000203A
:100FCC00780000207C00002080B483B000AF7860F3
:100FDC00074B1B687A6892FBF3F3064A1360064BC7
:100FEC0000221A6000BF0C37BD4680BC704700BFA2
:100FFC0014000020800000208400002080B483B006
:10100C0000AF7860074B1B687A6892FBF3F3064AD3
:10101C001360064B00221A6000BF0C37BD4680BC23
:10102C00704700BF14000020880000208C000020B6
:10103C0080B400AF064B1B68012B04D1044B00227B
:10104C001A60012300E000231846BD4680BC70479F
:10105C007C00002080B400AF064B1B68012B04D130
:10106C00044B00221A60012300E000231846BD4601
:10107C0080BC70478400002080B400AF064B1B6816
:10108C00012B04D1044B00221A60012300E0002341
:10109C001846BD4680BC70478C00002080B400AF61
:1010AC00194B1B68002B0BDD174B1B68013B164AB9
:1010BC001360154B1B68002B02DC144B01221A60C9
:1010CC00134B1B68002B0BDD114B1B68013B104AAB
:1010DC0013600F4B1B68002B02DC0E4B01221A60B5
:1010EC000D4B1B68002B0BDD0B4B1B68013B0A4A9D
:1010FC001360094B1B68002B02DC084B01221A60A1
:10110C0000BFBD4680BC7047780000207C000020EA
:10111C008000002084000020880000208C0000202B
:10112C0080B582B000AF78607B681B68B3F1804FEC
:10113C0003D1FFF7A5F8FFF7B1FF00BF0837BD4695
:10114C0080BD00000C480D490D4A002302E0D45824
:10115C00C4500433C4188C42F9D30A4A0A4C0023F5
:10116C0001E013600432A242FBD3FFF70DFF01F044
:10117C000DFBFFF7EDFB7047000000202000002066
:10118C003028000820000020DC000020FEE70000D2
:10119C0080B500AF084B1B68074A43F0100313607F
:1011AC00032000F023F90F2000F008F8FFF764FE8D
:1011BC000023184680BD00BF0020024080B582B0DD
:1011CC0000AF7860124B1A68124B1B7819464FF41B
:1011DC007A73B3FBF1F3B2FBF3F3184600F03BF96F
:1011EC000346002B01D001230EE07B680F2B0AD89D
:1011FC00002279684FF0FF3000F003F9064A7B6853
:10120C001360002300E0012318460837BD4680BD5B
:10121C00100000201C0000201800002080B400AF3B
:10122C00054B1B781A46054B1B681344034A136085
:10123C0000BFBD4680BC70471C000020D8000020B9
:10124C0080B400AF024B1B681846BD4680BC70478B
:10125C00D800002080B485B000AF78607B6803F0C4
:10126C000703FB600C4BDB68BB60BA684FF6FF03EF
:10127C001340BB60FB681A02BB68134343F0BF63A7
:10128C0043F40033BB60044ABB68D36000BF14371F
:10129C00BD4680BC704700BF00ED00E080B400AFDD
:1012AC00044BDB681B0A03F007031846BD4680BCE1
:1012BC00704700BF00ED00E080B483B000AF034680
:1012CC00FB7197F90730002B0BDBFB7903F01F0246
:1012DC00064997F907305B09012000FA02F241F840
:1012EC00232000BF0C37BD4680BC704700E100E0F6
:1012FC0080B483B000AF03463960FB7197F90730B7
:10130C00002B0ADB3B68DAB20C4997F90730120163
:10131C00D2B20B4483F800230AE03B68DAB20849E6
:10132C00FB7903F00F03043B1201D2B20B441A7683
:10133C0000BF0C37BD4680BC704700BF00E100E029
:10134C0000ED00E080B489B000AFF860B9607A605D
:10135C00FB6803F00703FB61FB69C3F10703042B74
:10136C0028BF0423BB61FB690433062B02D9FB693C
:10137C00033B00E000237B614FF0FF32BB6902FAB4
:10138C0003F3DA43BB681A407B699A404FF0FF3194
:10139C007B6901FA03F3D9437B680B40134318466E
:1013AC002437BD4680BC704780B582B000AF7860F2
:1013BC007B68013BB3F1807F01D301230FE00A4A24
:1013CC007B68013B53600F214FF0FF30FFF790FF1C
:1013DC00054B00229A60044B07221A600023184622
:1013EC000837BD4680BD00BF10E000E080B582B07C
:1013FC0000AF78607868FFF72DFF00BF0837BD4657
:10140C0080BD80B586B000AF0346B9607A60FB73CF
:10141C0000237B61FFF742FF78617A68B9687869CD
:10142C00FFF790FF024697F90F3011461846FFF769
:10143C005FFF00BF1837BD4680BD80B582B000AFDE
:10144C000346FB7197F907301846FFF735FF00BFCD
:10145C000837BD4680BD80B582B000AF7860786833
:10146C00FFF7A2FF034618460837BD4680BD0000B3
:10147C0080B48BB000AF7860396000237B620023AE
:10148C003B6248E101227B6A02FA03F3FB613B6891
:10149C001B68FA691340BB61BA69FB699A4240F058
:1014AC0037813B685B68A34A93425ED0A14A934262
:1014BC0075D8A14A934258D09F4A93426FD89F4AFD
:1014CC00934252D09D4A934269D89D4A93424CD044
:1014DC009B4A934263D89B4A934246D0994A934283
:1014EC005DD8122B2AD8122B59D801A252F823F00E
:1014FC00771500085115000863150008A51500089C
:10150C00AB150008AB150008AB150008AB150008AF
:10151C00AB150008AB150008AB150008AB1500089F
:10152C00AB150008AB150008AB150008AB1500088F
:10153C00AB150008591500086D150008824A934236
:10154C0013D02CE03B68DB683B6229E03B68DB682E
:10155C0004333B6224E03B68DB6808333B621FE0EA
:10156C003B68DB680C333B621AE03B689B68002BE2
:10157C0002D104233B6213E03B689B68012B05D12D
:10158C0008233B627B68FA691A6109E008233B6215
:10159C007B68FA695A6103E000233B6200E000BFFC
:1015AC00BB69FF2B01D87B6801E07B6804337B614E
:1015BC00BB69FF2B02D87B6A9B0002E07B6A083B6D
:1015CC009B003B617B691A680F213B6901FA03F3AD
:1015DC00DB431A40396A3B6901FA03F31A437B690E
:1015EC001A603B685B6803F08053002B00F090801E
:1015FC00564B9B69554A43F001039361534B9B69CE
:10160C0003F00103BB60BB68514A7B6A9B08023341
:10161C0052F82330FB607B6A03F003039B000F221C
:10162C0002FA03F3DB43FA681340FB607B68494A18
:10163C0093420DD07B68484A934207D07B68474A57
:10164C00934201D1022304E0032302E0012300E0D2
:10165C0000237A6A02F0030292009340FA68134363
:10166C00FB603B497B6A9B080233FA6841F82320F4
:10167C003B685B6803F48033002B06D0384B1A6848
:10168C003749BB6913430B6006E0354B1A68BB69DD
:10169C00DB43334913400B603B685B6803F4003356
:1016AC00002B06D02E4B5A682D49BB6913434B6057
:1016BC0006E02B4B5A68BB69DB43294913404B604E
:1016CC003B685B6803F48013002B06D0244B9A68AC
:1016DC002349BB6913438B6006E0214B9A68BB69B5
:1016EC00DB431F4913408B603B685B6803F40013BA
:1016FC00002B06D01A4BDA681949BB691343CB602F
:10170C0006E0174BDA68BB69DB4315491340CB6025
:10171C007B6A01337B623B681A687B6A22FA03F3AB
:10172C00002B7FF4AFAE00BF00BF2C37BD4680BC92
:10173C00704700BF00003210000031100000221072
:10174C0000002110000012100000111000100240C7
:10175C000000014000080140000C01400010014055
:10176C000004014080B485B000AF78600B467B80EC
:10177C007B689A687B881340002B02D00123FB7393
:10178C0001E00023FB73FB7B18461437BD4680BC7D
:10179C00704780B483B000AF78600B467B801346F3
:1017AC007B707B78002B03D07A887B681A6103E00E
:1017BC007B881A047B681A6100BF0C37BD4680BC5D
:1017CC00704780B485B000AF78600B467B807B6837
:1017DC00DB68FB607A88FB6813401A04FB68D9430A
:1017EC007B880B401A437B681A6100BF1437BD46D7
:1017FC0080BC704780B586B000AF78607B68002BEA
:10180C0001D101236CE27B681B6803F00103002B00
:10181C0000F08780924B5B6803F00C03042B0CD018
:10182C008F4B5B6803F00C03082B12D18C4B5B685D
:10183C0003F48033B3F5803F0BD1894B1B6803F461
:10184C000033002B6CD07B685B68002B68D10123C4
:10185C0046E27B685B68B3F5803F06D1804B1B6822
:10186C007F4A43F4803313602EE07B685B68002B67
:10187C000CD17B4B1B687A4A23F480331360784B72
:10188C001B68774A23F4802313601DE07B685B6838
:10189C00B3F5A02F0CD1724B1B68714A43F4802313
:1018AC0013606F4B1B686E4A43F4803313600BE07C
:1018BC006B4B1B686A4A23F480331360684B1B68BC
:1018CC00674A23F4802313607B685B68002B13D07A
:1018DC00FFF7B6FC386108E0FFF7B2FC02463B6943
:1018EC00D31A642B01D90323FAE15D4B1B6803F473
:1018FC000033002BF0D014E0FFF7A2FC386108E0B5
:10190C00FFF79EFC02463B69D31A642B01D90323D3
:10191C00E6E1534B1B6803F40033002BF0D100E0DD
:10192C0000BF7B681B6803F00203002B63D04C4B99
:10193C005B6803F00C03002B0BD0494B5B6803F086
:10194C000C03082B1CD1464B5B6803F48033002B33
:10195C0016D1434B1B6803F00203002B05D07B68A8
:10196C001B69012B01D00123BAE13D4B1B6823F00D
:10197C00F8027B685B69DB00394913430B603AE082
:10198C007B681B69002B20D0364B01221A60FFF7B5
:10199C0057FC386108E0FFF753FC02463B69D31A49
:1019AC00022B01D903239BE12D4B1B6803F002038F
:1019BC00002BF0D02A4B1B6823F0F8027B685B6984
:1019CC00DB00274913430B6015E0264B00221A60FD
:1019DC00FFF736FC386108E0FFF732FC02463B6942
:1019EC00D31A022B01D903237AE11D4B1B6803F098
:1019FC000203002BF0D17B681B6803F00803002B5B
:101A0C003AD07B689B69002B19D0174B01221A60C6
:101A1C00FFF716FC386108E0FFF712FC02463B6941
:101A2C00D31A022B01D903235AE10D4B5B6A03F045
:101A3C000203002BF0D0012000F0A6FA1CE00A4BA8
:101A4C0000221A60FFF7FCFB38610FE0FFF7F8FB90
:101A5C0002463B69D31A022B08D9032340E100BF8D
:101A6C000010024000004242800442429E4B5B6ADE
:101A7C0003F00203002BE9D17B681B6803F004031D
:101A8C00002B00F0A6800023FB75974BDB6903F05D
:101A9C008053002B0DD1944BDB69934A43F0805358
:101AAC00D361914BDB6903F08053BB60BB680123AE
:101ABC00FB758E4B1B6803F48073002B18D18B4B7A
:101ACC001B688A4A43F480731360FFF7B9FB3861D3
:101ADC0008E0FFF7B5FB02463B69D31A642B01D92A
:101AEC000323FDE0814B1B6803F48073002BF0D0C3
:101AFC007B68DB68012B06D17B4B1B6A7A4A43F06F
:101B0C00010313622DE07B68DB68002B0CD1764B54
:101B1C001B6A754A23F001031362734B1B6A724AEA
:101B2C0023F0040313621CE07B68DB68052B0CD1EB
:101B3C006D4B1B6A6C4A43F0040313626A4B1B6ABD
:101B4C00694A43F0010313620BE0674B1B6A664A58
:101B5C0023F001031362644B1B6A634A23F00403F2
:101B6C0013627B68DB68002B15D0FFF769FB3861CB
:101B7C000AE0FFF765FB02463B69D31A41F2883253
:101B8C00934201D90323ABE0574B1B6A03F00203CA
:101B9C00002BEED014E0FFF753FB38610AE0FFF79F
:101BAC004FFB02463B69D31A41F28832934201D96A
:101BBC00032395E04C4B1B6A03F00203002BEED180
:101BCC00FB7D012B05D1484BDB69474A23F0805341
:101BDC00D3617B68DB69002B00F08180424B5B6832
:101BEC0003F00C03082B61D07B68DB69022B46D118
:101BFC003F4B00221A60FFF723FB386108E0FFF728
:101C0C001FFB02463B69D31A022B01D9032367E061
:101C1C00354B1B6803F00073002BF0D17B681B6AFB
:101C2C00B3F5803F08D1304B5B6823F400327B68FE
:101C3C009B682D4913434B602B4B5B6823F4741248
:101C4C007B68196A7B685B6A0B43274913434B60BB
:101C5C00274B01221A60FFF7F3FA386108E0FFF70F
:101C6C00EFFA02463B69D31A022B01D9032337E062
:101C7C001D4B1B6803F00073002BF0D02FE01C4BA6
:101C8C0000221A60FFF7DCFA386108E0FFF7D8FA97
:101C9C0002463B69D31A022B01D9032320E0124BD5
:101CAC001B6803F00073002BF0D118E07B68DB6934
:101CBC00012B01D1012313E00B4B5B68FB60FB682C
:101CCC0003F480327B681B6A9A4206D1FB6803F4EA
:101CDC0070127B685B6A9A4201D0012300E00023FA
:101CEC0018461837BD4680BD0010024000700040F9
:101CFC006000424280B584B000AF786039607B6888
:101D0C00002B01D10123D0E06A4B1B6803F00703C1
:101D1C003A689A4210D9674B1B6823F00702654951
:101D2C003B6813430B60634B1B6803F007033A6873
:101D3C009A4201D00123B8E07B681B6803F00203D0
:101D4C00002B20D07B681B6803F00403002B05D00C
:101D5C00594B5B68584A43F4E06353607B681B68DB
:101D6C0003F00803002B05D0534B5B68524A43F435
:101D7C0060535360504B5B6823F0F0027B689B68A8
:101D8C004D4913434B607B681B6803F00103002B28
:101D9C0040D07B685B68012B07D1474B1B6803F471
:101DAC000033002B15D101237FE07B685B68022B8D
:101DBC0007D1414B1B6803F00073002B09D10123A1
:101DCC0073E03D4B1B6803F00203002B01D1012390
:101DDC006BE0394B5B6823F003027B685B68364928
:101DEC0013434B60FFF72CFAF8600AE0FFF728FA70
:101DFC000246FB68D31A41F28832934201D903237D
:101E0C0053E02D4B5B6803F00C027B685B689B0016
:101E1C009A42EBD1274B1B6803F007033A689A42AE
:101E2C0010D2244B1B6823F0070222493B68134352
:101E3C000B60204B1B6803F007033A689A4201D0F1
:101E4C00012332E07B681B6803F00403002B08D0ED
:101E5C00194B5B6823F4E0627B68DB68164913431B
:101E6C004B607B681B6803F00803002B09D0124BF6
:101E7C005B6823F460527B681B69DB000E491343DB
:101E8C004B6000F021F802460B4B5B681B0903F01A
:101E9C000F030A49CB5C22FA03F3094A1360094B7E
:101EAC001B681846FFF78AF9002318461037BD4601
:101EBC0080BD00BF0020024000100240182800081E
:101ECC00100000201800002090B48AB000AF2A4BFC
:101EDC003C1D0FCB84E80F0040F201233B80002314
:101EEC00FB610023BB6100237B6200237B61002329
:101EFC003B62224B5B68FB61FB6903F00C03042B18
:101F0C0002D0082B03D02DE01D4B3B622DE0FB696A
:101F1C009B0C03F00F0307F12802134413F8243C25
:101F2C007B61FB6903F48033002B13D0134B5B688C
:101F3C005B0C03F0010307F12802134413F8283C4F
:101F4C00BB617B690E4A02FB03F2BB69B2FBF3F384
:101F5C007B6204E07B690B4A02FB03F37B627B6AC6
:101F6C003B6202E0064B3B6200BF3B6A18462837D7
:101F7C00BD4690BC704700BF082800080010024006
:101F8C0000127A0000093D0080B485B000AF786083
:101F9C000A4B1B680A4AA2FB03235B0A7A6802FB02
:101FAC0003F3FB6000BFFB685A1EFA60002BF9D1EB
:101FBC0000BF00BF1437BD4680BC70471000002026
:101FCC00D34D621080B582B000AF78607B68002B77
:101FDC0001D1012341E07B6893F83D30DBB2002B4B
:101FEC0006D17B68002283F83C207868FEF776FFE8
:101FFC007B68022283F83D207B681A687B68043377
:10200C001946104600F06AFA7B68012283F84620D4
:10201C007B68012283F83E207B68012283F83F20F5
:10202C007B68012283F840207B68012283F84120E1
:10203C007B68012283F842207B68012283F84320CD
:10204C007B68012283F844207B68012283F84520B9
:10205C007B68012283F83D20002318460837BD46D3
:10206C0080BD000080B485B000AF78607B6893F8C9
:10207C003D30DBB2012B01D0012335E07B6802221D
:10208C0083F83D207B681B68DA687B681B6842F02C
:10209C000102DA607B681B68164A934209D07B68A0
:1020AC001B68B3F1804F04D07B681B68124A9342C3
:1020BC0011D17B681B689B6803F00703FB60FB680E
:1020CC00062B10D07B681B681A687B681B6842F073
:1020DC0001021A6007E07B681B681A687B681B6842
:1020EC0042F001021A60002318461437BD4680BC2A
:1020FC00704700BF002C01400004004080B582B046
:10210C0000AF78607B681B681B6903F00203022B2D
:10211C0022D17B681B68DB6803F00203022B1BD106
:10212C007B681B686FF002021A617B6801221A77C8
:10213C007B681B689B6903F00303002B03D0786852
:10214C0000F0B1F905E0786800F0A4F9786800F0C7
:10215C00B3F97B6800221A777B681B681B6903F054
:10216C000403042B22D17B681B68DB6803F0040397
:10217C00042B1BD17B681B686FF004021A617B680F
:10218C0002221A777B681B689B6903F44073002B4F
:10219C0003D0786800F087F905E0786800F07AF9E8
:1021AC00786800F089F97B6800221A777B681B68D5
:1021BC001B6903F00803082B22D17B681B68DB68C2
:1021CC0003F00803082B1BD17B681B686FF0080217
:1021DC001A617B6804221A777B681B68DB6903F041
:1021EC000303002B03D0786800F05DF905E07868F4
:1021FC0000F050F9786800F05FF97B6800221A77DC
:10220C007B681B681B6903F01003102B22D17B68C1
:10221C001B68DB6803F01003102B1BD17B681B6859
:10222C006FF010021A617B6808221A777B681B68B2
:10223C00DB6903F44073002B03D0786800F033F9AA
:10224C0005E0786800F026F9786800F035F97B68CD
:10225C0000221A777B681B681B6903F00103012BB2
:10226C000ED17B681B68DB6803F00103012B07D1DF
:10227C007B681B686FF001021A617868FEF750FFEB
:10228C007B681B681B6903F08003802B0ED17B6875
:10229C001B68DB6803F08003802B07D17B681B680D
:1022AC006FF080021A61786800F067FA7B681B682F
:1022BC001B6903F04003402B0ED17B681B68DB6865
:1022CC0003F04003402B07D17B681B686FF0400282
:1022DC001A61786800F0F9F87B681B681B6903F0D9
:1022EC002003202B0ED17B681B68DB6803F02003D6
:1022FC00202B07D17B681B686FF020021A6178686D
:10230C0000F032FA00BF0837BD4680BD80B584B0FE
:10231C0000AF786039607B6893F83C30012B01D1B9
:10232C000223B3E07B68012283F83C207B68022205
:10233C0083F83D207B681B689B68FB60FB6823F07F
:10234C007703FB60FB6823F47F43FB607B681B68AF
:10235C00FA689A603B681B68B3F5005F3ED0B3F532
:10236C00005F00F28780B3F5805F00F08580B3F5E5
:10237C00805F7FD8702B1AD0702B7BD8602B50D0FD
:10238C00602B77D8502B3CD0502B73D8402B58D087
:10239C00402B6FD8302B64D0302B6BD8202B60D0D7
:1023AC00202B67D8002B5CD0102B5AD062E07B68B6
:1023BC0018683B6899683B685A683B68DB6800F0B2
:1023CC005CF97B681B689B68FB60FB6843F07703D8
:1023DC00FB607B681B68FA689A604EE07B68186843
:1023EC003B6899683B685A683B68DB6800F045F9C4
:1023FC007B681B689A687B681B6842F480429A6011
:10240C003BE07B6818683B6859683B68DB681A4698
:10241C0000F0BCF87B681B685021184600F013F9DB
:10242C002BE07B6818683B6859683B68DB681A4688
:10243C0000F0DAF87B681B686021184600F003F99D
:10244C001BE07B6818683B6859683B68DB681A4678
:10245C0000F09CF87B681B684021184600F0F3F8EC
:10246C000BE07B681A683B681B681946104600F045
:10247C00EAF802E000BF00E000BF7B68012283F8AD
:10248C003D207B68002283F83C200023184610373F
:10249C00BD4680BD80B483B000AF786000BF0C3700
:1024AC00BD4680BC704780B483B000AF786000BF7D
:1024BC000C37BD4680BC704780B483B000AF7860E9
:1024CC0000BF0C37BD4680BC704780B483B000AFF2
:1024DC00786000BF0C37BD4680BC704780B485B0B7
:1024EC0000AF786039607B681B68FB607B68254AAD
:1024FC00934207D07B68B3F1804F03D07B68224AAC
:10250C00934208D1FB6823F07003FB603B685B6867
:10251C00FA681343FB607B681A4A934207D07B68C6
:10252C00B3F1804F03D07B68174A934208D1FB6804
:10253C0023F44073FB603B68DB68FA681343FB6071
:10254C00FB6823F080023B685B691343FB607B688C
:10255C00FA681A603B689A687B68DA623B681A68AA
:10256C007B689A627B68074A934203D13B681A697D
:10257C007B681A637B6801225A6100BF1437BD4621
:10258C0080BC7047002C01400004004080B487B030
:10259C0000AFF860B9607A60FB681B6A7B61FB680E
:1025AC001B6A23F00102FB681A62FB689B693B61A2
:1025BC003B6923F0F0033B617B681B013A691343D1
:1025CC003B617B6923F00A037B617A69BB68134327
:1025DC007B61FB683A699A61FB687A691A6200BF91
:1025EC001C37BD4680BC704780B487B000AFF86024
:1025FC00B9607A60FB681B6A23F01002FB681A62F0
:10260C00FB689B697B61FB681B6A3B617B6923F4FC
:10261C0070437B617B681B037A6913437B613B6965
:10262C0023F0A0033B61BB681B013A6913433B6178
:10263C00FB687A699A61FB683A691A6200BF1C37B9
:10264C00BD4680BC704780B485B000AF78603960FF
:10265C007B689B68FB60FB6823F07003FB603A6847
:10266C00FB68134343F00703FB607B68FA689A60CE
:10267C0000BF1437BD4680BC704780B487B000AF34
:10268C00F860B9607A603B60FB689B687B617B6932
:10269C0023F47F437B613B681A027B681A43BB6857
:1026AC0013437A6913437B61FB687A699A6000BFB4
:1026BC001C37BD4680BC704780B485B000AF7860D5
:1026CC0039607B6893F83C30012B01D1022341E047
:1026DC007B68012283F83C207B68022283F83D2032
:1026EC007B681B685B68FB607B681B689B68BB60D6
:1026FC00FB6823F07003FB603B681B68FA681343AC
:10270C00FB607B681B68FA685A607B681B68144A1C
:10271C00934209D07B681B68B3F1804F04D07B686F
:10272C001B68104A93420CD1BB6823F08003BB603A
:10273C003B685B68BA681343BB607B681B68BA680C
:10274C009A607B68012283F83D207B68002283F825
:10275C003C20002318461437BD4680BC704700BF90
:10276C00002C01400004004080B483B000AF7860BE
:10277C0000BF0C37BD4680BC704780B483B000AF3F
:10278C00786000BF0C37BD4680BC704770B5002622
:10279C000C4D0D4C641BA410A64209D100F022F87C
:1027AC0000260A4D0A4C641BA410A64205D170BD2C
:1027BC0055F8043B98470136EEE755F8043B98472B
:1027CC000136F2E7282800082828000828280008E5
:1027DC002C28000803460244934200D1704703F8AA
:1027EC00011BF9E7F8B500BFF8BC08BC9E46704762
:0C27FC00F8B500BFF8BC08BC9E46704752
:1028080002030405060708090A0B0C0D0E0F101029
:102818000000000000000000010203040607080988
:042828003101000872
:04282C000D01000892
:10283000050000000300000002000000F401000099
:102840000024F4000A000000100000000100000055
:04000005080011518D
:00000001FF
