:020000040800F2
:1000000000500020C91300083113000837130008FE
:100010003D130008431300084913000800000000C6
:100020000000000000000000000000004F13000866
:100030005B1300080000000067130008731300083A
:1000400011140008111400081114000811140008FC
:1000500011140008111400081114000811140008EC
:1000600011140008111400081114000811140008DC
:1000700011140008111400081114000811140008CC
:1000800011140008111400081114000811140008BC
:1000900011140008111400081114000811140008AC
:1000A000111400081114000811140008111400089C
:1000B000811300089513000811140008111400089A
:1000C000111400081114000811140008111400087C
:1000D0001114000811140008A913000811140008D5
:1000E0001114000811140008111400080000000089
:1000F0000000000000000000000000000000000000
:0C01000000000000000000005FF808F1A3
:10010C0010B5054C237833B9044B13B10448AFF345
:10011C0000800123237010BD54000020000000005B
:10012C00E43C000808B5034B1BB103490348AFF38B
:10013C00008008BD0000000058000020E43C0008CE
:10014C0080B582B000AF0023FB71D8E0FB79704A18
:10015C00D35C022B00F0BF80022B00F3C880002B75
:10016C0003D0012B00F09F80C1E0FB79184600F012
:10017C0085F90346002B00F08E80FB79644A01213F
:10018C00D154FB79032B00F2888001A252F823F0A2
:10019C00AD010008CB010008ED0100084302000886
:1001AC005C4B01221A605C4B1A685B4B5B681A440F
:1001BC00594B9B6813445B00584A136072E0584BD0
:1001CC0000221A60574B1B68042B03DD554B012290
:1001DC001A6067E0534B1B680133524A136061E0AD
:1001EC00504B1B68022B10D142F2107000F0E4FE51
:1001FC004D4B1B68012B03DD4B4B00221A6004E0B6
:10020C00494B1B680133484A1360464B1B68022B51
:10021C0045DD444B1B68052B41DC444B1B68622BB2
:10022C0003DD424B01221A6039E0404B1B6801335D
:10023C003E4A136033E03B4B1B68022B10D142F259
:10024C00107000F0B9FE3A4B1B68012B03DD384BE4
:10025C0000221A6004E0364B1B680133344A1360E9
:10026C00304B1B68032B04D1304B1B682A4A13609C
:10027C0017E02C4B1B68042B04D12C4B1B68264A13
:10028C0093600EE0274B1B68052B0AD1274B1B688C
:10029C00214A536005E000BF2EE000BF2CE000BFF8
:1002AC002AE000BF28E0FB79184600F0E7F8034687
:1002BC00002B04D1FB79164A0021D15419E0FB79AB
:1002CC00184600F0F5F80346002B12D0FB79104AC3
:1002DC000221D1540DE0FB79184600F0CFF803460B
:1002EC00002B08D1FB790A4A0021D15403E000BF4E
:1002FC0002E000BF00E000BFFB790133FB71FB792A
:10030C00032B7FF623AF00BF00BF0837BD4680BD6F
:10031C00940000208C0000200000002090000020A1
:10032C00740000207000002078000020880000205D
:10033C007C00002080B582B000AF00237B6085E09C
:10034C00474A7B6813441978464A7B6813440A462B
:10035C001A707B68032B3BD801A252F823F000BF24
:10036C007D03000895030008AD030008C5030008D1
:10037C0001213D4801F0ECFB03461946384A7B68E5
:10038C0013440A461A7024E00221374801F0E0FBBE
:10039C0003461946324A7B6813440A461A7018E021
:1003AC001021314801F0D4FB034619462C4A7B68D6
:1003BC0013440A461A700CE001212C4801F0C8FBCA
:1003CC0003461946264A7B6813440A461A7000E015
:1003DC0000BF234A7B6813441A7822497B680B447C
:1003EC001B789A422FD11E4A7B6813441978204AF5
:1003FC007B6813440A461A701D4A7B6813441B78A9
:10040C00002B16D11B4A7B6832F81330632B0AD8A9
:10041C00184A7B6832F81330013399B2154A7B685D
:10042C0022F813100FE0144A7B68134401221A704F
:10043C0009E0104A7B68002122F813100E4A7B68F1
:10044C00134400221A707B6801337B607B68032B9A
:10045C007FF676AF00BF00BF0837BD4680BD00BF3A
:10046C009C000020A000002000080140000C01406E
:10047C0098000020A8000020A400002080B483B0C5
:10048C0000AF0346FB71FB79032B01D9002307E076
:10049C00FB79064AD35C002B0CBF01230023DBB293
:1004AC0018460C37BD4680BC704700BF9800002032
:1004BC0080B483B000AF0346FB71FB79032B01D9E9
:1004CC00FF2307E0FB79064AD35C012B0CBF012309
:1004DC000023DBB218460C37BD4680BC704700BF0A
:1004EC00A400002080B582B000AF786039607B68D2
:1004FC00022B21D07B68022B2ADC7B68002B03D0DB
:10050C007B68012B0CD023E001224FF480612A4838
:10051C0001F035FB00220821284801F030FB18E0DF
:10052C0000224FF48061244801F029FB01220821AC
:10053C00224801F024FB0CE001224FF480611E489C
:10054C0001F01DFB012208211C4801F018FB00E002
:10055C0000BF3B68022B1FD03B68022B27DC3B689B
:10056C00002B03D03B68012B0BD020E00122202173
:10057C00124801F004FB00221021104801F0FFFA90
:10058C0016E0002220210D4801F0F9FA0122102179
:10059C000A4801F0F4FA0BE001222021074801F08F
:1005AC00EEFA01221021054801F0E9FA00E000BF43
:1005BC0000BF0837BD4680BD00080140000C01405B
:1005CC0080B582B000AF786039607B68022B1FD099
:1005DC007B68022B26DC7B68002B03D07B68012B0D
:1005EC000BD01FE000220821264801F0C8FA4FF476
:1005FC008061254801F0DBFA15E000224FF48061A0
:10060C00214801F0BCFA08211E4801F0D0FA0AE09A
:10061C004FF480611C4801F0CAFA0821194801F016
:10062C00C6FA00E000BF3B68022B1DD03B68022BD2
:10063C0023DC3B68002B03D03B68012B0AD01CE069
:10064C00002210210F4801F09AFA20210D4801F0E8
:10065C00AEFA13E0002220210A4801F090FA102192
:10066C00084801F0A4FA09E02021064801F09FFA9D
:10067C001021044801F09BFA00E000BF00BF0837CE
:10068C00BD4680BD000C01400008014080B582B021
:10069C0000AF78607B68032B3CD801A252F823F0A2
:1006AC00BD060008D7060008F10600080B07000875
:1006BC0001224FF48061204801F061FA00224FF4CE
:1006CC0080711E4801F05BFA31E000224FF480612A
:1006DC00194801F054FA01224FF48071174801F0C7
:1006EC004EFA24E000224FF48061134801F047FADF
:1006FC0001224FF48071114801F041FA17E00022F9
:10070C004FF480610C4801F03AFA4FF480710B48B9
:10071C0001F04DFA00224FF48061074801F02FFAE6
:10072C0000224FF48071054801F029FA00BF00BF88
:10073C000837BD4680BD00BF000C014000080140D9
:10074C0080B485B000AF78600023FB601EE07A684F
:10075C00134B83FB02139910D317C91A0B469B003A
:10076C000B445B00D11ACAB2FB68C3F107033032E9
:10077C00D1B20C4AD1547B68094A82FB0312921005
:10078C00DB17D31A7B60FB680133FB60FB68012B22
:10079C00DDDD00BF00BF1437BD4680BC704700BF15
:1007AC00676666661000002080B582B000AF00F06E
:1007BC002BFE00F071F800F097F900F0A9F800F0AA
:1007CC00F3F800F067F92B4801F074FE00212A4879
:1007DC0001F01AFF00237B60C82000F0D3FB00F06F
:1007EC001FFC0346012B0DD1244B1B681846FFF749
:1007FC00A7FF0A2332222249224802F0B6FDC82064
:10080C0000F0C0FBFFF79CFC00F00EFA1E4B1B68BF
:10081C00002B24DD1C4B1A681C4B1B689A421EDCF7
:10082C001B4B1B68022B1AD100F01EFC0346012B3C
:10083C001ED1114B1B687A685A637B68642B02DCEF
:10084C007B6814337B600320FFF720FF114B1B6880
:10085C00C82202FB03F3184600F0C8FB08E0064B65
:10086C001B6800225A6300237B60002000F0BEFB53
:10087C00B5E700BF18010020D00000208000002048
:10088C0010000020600100208C000020900000204F
:10089C007C0000208400002080B590B000AF07F1F0
:1008AC00180328220021184603F00EFA3B1D0022E3
:1008BC001A605A609A60DA601A610223BB610123E4
:1008CC00BB621023FB6200237B6307F118031846FD
:1008DC0001F086F90346002B01D000F0A0F90F239C
:1008EC007B600023BB600023FB6000233B61002383
:1008FC007B613B1D0021184601F0F2FB0346002BE7
:10090C0001D000F08CF900BF4037BD4680BD00001F
:10091C0080B586B000AF07F1080300221A605A6058
:10092C009A60DA603B4600221A605A601D4B4FF009
:10093C0080421A601B4B09225A601A4B00229A60A3
:10094C00184B41F63F72DA60164B00221A61154BB8
:10095C0000229A61134801F05DFD0346002B01D083
:10096C0000F05DF94FF48053BB6007F108031946A2
:10097C000C4802F0B1F80346002B01D000F04FF9FF
:10098C0000233B6000237B603B461946054802F080
:10099C002FFC0346002B01D000F041F900BF1837A3
:1009AC00BD4680BD1801002080B58EB000AF07F1A8
:1009BC00280300221A605A609A60DA6007F120035B
:1009CC0000221A605A603B1D00221A605A609A601D
:1009DC00DA601A615A619A612C4B2D4A1A602B4BC2
:1009EC0009225A60294B00229A60284B40F21F3290
:1009FC00DA60264B00221A61244B00229A612348AC
:100A0C0001F008FD0346002B01D000F008F94FF46B
:100A1C008053BB6207F1280319461C4802F05CF8AE
:100A2C000346002B01D000F0FAF8184801F094FDB1
:100A3C000346002B01D000F0F2F800233B620023A8
:100A4C007B6207F120031946104802F0D1FB0346E4
:100A5C00002B01D000F0E3F860237B600023BB6027
:100A6C000023FB6000237B613B1D002219460748D5
:100A7C0001F074FF0346002B01D000F0D0F80348BE
:100A8C0000F0CCFB00BF3837BD4680BDD000002045
:100A9C000004004080B500AF114B124A1A60104B95
:100AAC004FF416525A600E4B00229A600C4B0022E7
:100ABC00DA600B4B00221A61094B0C225A61084B6D
:100ACC0000229A61064B0022DA61054802F000FC14
:100ADC000346002B01D000F0A2F800BF80BD00BF80
:100AEC00600100200044004080B588B000AF07F1E1
:100AFC00100300221A605A609A60DA603B4B9B69C3
:100B0C003A4A43F010039361384B9B6903F010038E
:100B1C00FB60FB68354B9B69344A43F004039361DB
:100B2C00324B9B6903F00403BB60BB682F4B9B6982
:100B3C002E4A43F0080393612C4B9B6903F0080386
:100B4C007B607B6800224FF48761294801F017F81D
:100B5C0000224FF4A061274801F011F84FF4005324
:100B6C003B6100237B610123BB6107F11003194634
:100B7C00214800F069FE13233B6100237B610123B4
:100B8C00BB6107F1100319461A4800F05DFE012302
:100B9C003B6100237B610123BB6107F11003194604
:100BAC00134800F051FE4FF487633B6101237B61D6
:100BBC000023BB610223FB6107F1100319460C48AB
:100BCC0000F042FE4FF4A0633B6101237B610023E4
:100BDC00BB610223FB6107F110031946054800F0C5
:100BEC0033FE00BF2037BD4680BD00BF0010024061
:100BFC00000C0140000801400010014080B582B09B
:100C0C0000AF78607B681B68B3F1804F03D1FFF7AE
:100C1C0091FB00F03BFA00BF0837BD4680BD80B4A5
:100C2C0000AF72B600BFFEE780B500AF934B1B68F8
:100C3C00013B042B00F2918101A252F823F000BF7A
:100C4C00610C0008970D0008CB0D0008450E00083C
:100C5C00EB0E00088A4B1B68002B23D1894B00221A
:100C6C001A60894B01221A60864B1B68874A52F81E
:100C7C002330874A1360844B1B68844A52F8233014
:100C8C00844A13607E4B01221A607E4B1B687E4A9D
:100C9C00126811461846FFF725FC4FF47A7000F0E5
:100CAC008BF959E100F0CEF90346012B40F0548149
:100CBC00774B1B68013B764A1360764B1B68013BF4
:100CCC00744A1360724B1B68002B12DC6D4B1B6853
:100CDC0001336C4A13606B4B1B68022B02DD694BB2
:100CEC0000221A60674B1B68684A52F82330684A26
:100CFC001360684B1B68002B12DC634B1B680133C1
:100D0C00614A1360604B1B68022B02DD5E4B0022B4
:100D1C001A605D4B1B685D4A52F823305D4A1360C4
:100D2C005D4B1B68002B1DDD5B4B1A685B4B1B6816
:100D3C009A4217DC544B1B68022B08D1534B9A6810
:100D4C00544B1B689A4202D10A2000F04FF94E4BCB
:100D5C001B681846FFF79AFC4F4B1B6801334E4A31
:100D6C00136005E00520FFF791FC4B4B00221A6045
:100D7C00444B1B68444A126811461846FFF7B2FBF5
:100D8C004FF47A7000F018F9E6E03D4B1B68002B2D
:100D9C0008D13C4B00221A603B4B01221A60384BA5
:100DAC0001221A60374B1B68374A126811461846E5
:100DBC00FFF798FB314B1B68354A1360CDE0304B85
:100DCC001B68002B1DD12F4B00221A602E4B0022CA
:100DDC001A602C4B1B682D4A52F82330304A136092
:100DEC00274B01221A60274B1B68274A12681146B1
:100DFC001846FFF777FB2B4B1B68184600F0DCF806
:100E0C0011E000F01FF90346012B0CD11D4B1B68A0
:100E1C001D4A126811461846FFF7D2FB214B1B687E
:100E2C00184600F0C9F81E4B1B68194A1360134B87
:100E3C001B68184A136090E0114B1B68002B33D1D0
:100E4C00104B02221A60104B02221A600D4B1B68C9
:100E5C000E4A52F82330124A1360094B01221A60D1
:100E6C00084B1B68084A126811461846FFF73AFBF4
:100E7C000C4B1B68184600F09FF827E07000002010
:100E8C0074000020780000207C000020000000206E
:100E9C0080000020840000208C00002090000020A6
:100EAC00880000200C00002000F0CCF80346012B39
:100EBC000CD12B4B1B682B4A126811461846FFF7B6
:100ECC007FFB294B1B68184600F076F8274B1B68F4
:100EDC00274A1360274B1B68274A13603DE0274BBA
:100EEC001B68002B1DD11E4B01221A601D4B0122C9
:100EFC001A601B4B1B68224A52F823301B4A1360A2
:100F0C001E4B01221A60164B1B68164A12681146BA
:100F1C001846FFF7E7FA144B1B68184600F04CF81C
:100F2C0011E000F08FF80346012B0CD10C4B1B6821
:100F3C000C4A126811461846FFF742FB0A4B1B6815
:100F4C00184600F039F8094B1B68094A1360094B25
:100F5C001B68094A136000E000BF00BF80BD00BFE2
:100F6C00780000207C0000200C000020880000206D
:100F7C0080000020700000208400002074000020FD
:100F8C000000002080B483B000AF7860074B1B6872
:100F9C007A6892FBF3F3064A1360064B00221A6040
:100FAC0000BF0C37BD4680BC704700BF440000201A
:100FBC00B0000020B400002080B483B000AF786093
:100FCC00074B1B687A6892FBF3F3064A1360064BD7
:100FDC0000221A6000BF0C37BD4680BC704700BFB2
:100FEC0044000020B8000020BC00002080B483B076
:100FFC0000AF7860074B1B687A6892FBF3F3064AE4
:10100C001360064B00221A6000BF0C37BD4680BC33
:10101C00704700BF44000020C8000020CC00002016
:10102C0080B400AF064B1B68012B04D1044B00228B
:10103C001A60012300E000231846BD4680BC7047AF
:10104C00B400002080B400AF064B1B68012B04D108
:10105C00044B00221A60012300E000231846BD4611
:10106C0080BC7047BC00002080B400AF064B1B68EE
:10107C00012B04D1044B00221A60012300E0002351
:10108C001846BD4680BC7047CC00002080B400AF31
:10109C00214B1B68002B0BDD1F4B1B68013B1E4AB1
:1010AC0013601D4B1B68002B02DC1C4B01221A60C9
:1010BC001B4B1B68002B0BDD194B1B68013B184AA3
:1010CC001360174B1B68002B02DC164B01221A60B5
:1010DC00154B1B68002B0BDD134B1B68013B124A95
:1010EC001360114B1B68002B02DC104B01221A60A1
:1010FC000F4B1B68002B0BDD0D4B1B68013B0C4A87
:10110C0013600B4B1B68002B02DC0A4B01221A608C
:10111C0000BFBD4680BC7047B0000020B40000206A
:10112C00B8000020BC000020C0000020C40000203B
:10113C00C8000020CC00002080B485B000AF154B57
:10114C009B69144A43F001039361124B9B6903F0B2
:10115C000103BB60BB680F4BDB690E4A43F0805345
:10116C00D3610C4BDB6903F080537B607B680A4BCB
:10117C005B68FB60FB6823F0E063FB60FB6843F09B
:10118C000073FB60044AFB68536000BF1437BD4614
:10119C0080BC7047001002400000014080B584B054
:1011AC0000AF78607B681B68B3F1804F14D1194B8A
:1011BC00DB69184A43F00103D361164BDB6903F07A
:1011CC000103FB60FB68002200211C2000F055FA93
:1011DC001C2000F06EFA18E07B681B680E4A9342E4
:1011EC0013D10C4BDB690B4A43F00203D361094B5F
:1011FC00DB6903F00203BB60BB68002200211D20E9
:10120C0000F03BFA1D2000F054FA00BF1037BD4629
:10121C0080BD00BF001002400004004080B588B0C3
:10122C0000AF786007F1100300221A605A609A60D0
:10123C00DA607B681B680F4A934217D10E4B9B698F
:10124C000D4A43F0040393610B4B9B6903F00403B9
:10125C00FB60FB6840233B6102237B610223FB6143
:10126C0007F110031946054800F0EEFA00BF2037CD
:10127C00BD4680BD00040040001002400008014043
:10128C0080B588B000AF786007F1100300221A60B7
:10129C005A609A60DA607B681B681F4A934237D1A8
:1012AC001E4BDB691D4A43F40033D3611B4BDB69D6
:1012BC0003F40033FB60FB68184B9B69174A43F03F
:1012CC0004039361154B9B6903F00403BB60BB687B
:1012DC0004233B6102237B610323FB6107F11003B1
:1012EC0019460F4800F0B0FA08233B6100237B61DC
:1012FC000023BB6107F110031946094800F0A4FA5A
:10130C0000220021262000F0B8F9262000F0D1F9A7
:10131C0000BF2037BD4680BD004400400010024095
:10132C000008014080B400AFFEE780B400AFFEE7D8
:10133C0080B400AFFEE780B400AFFEE780B400AF2E
:10134C00FEE780B400AF00BFBD4680BC704780B4E0
:10135C0000AF00BFBD4680BC704780B400AF00BF7B
:10136C00BD4680BC704780B500AF00F093F800BF5D
:10137C0080BD000080B500AF024801F0E7F900BF66
:10138C0080BD00BF1801002080B500AF024801F0FD
:10139C00DDF900BF80BD00BFD000002080B500AFDC
:1013AC00024802F075F800BF80BD00BF600100204C
:1013BC0080B400AF00BFBD4680BC70470C480D49DF
:1013CC000D4A002302E0D458C4500433C4188C4294
:1013DC00F9D30A4A0A4C002301E013600432A242FA
:1013EC00FBD3FFF7E5FF02F04BFCFFF7DDF970478D
:1013FC0000000020540000202C3D00085400002068
:10140C00A8010020FEE7000080B500AF084B1B6868
:10141C00074A43F010031360032000F023F90F2058
:10142C0000F008F8FFF788FE0023184680BD00BFC7
:10143C000020024080B582B000AF7860124B1A6871
:10144C00124B1B7819464FF47A73B3FBF1F3B2FBD2
:10145C00F3F3184600F03BF90346002B01D00123AF
:10146C000EE07B680F2B0AD8002279684FF0FF3012
:10147C0000F003F9064A7B681360002300E00123A7
:10148C0018460837BD4680BD48000020500000209B
:10149C004C00002080B400AF054B1B781A46054B5E
:1014AC001B681344034A136000BFBD4680BC7047E1
:1014BC0050000020A401002080B400AF024B1B6838
:1014CC001846BD4680BC7047A401002080B485B08E
:1014DC0000AF78607B6803F00703FB600C4BDB68A4
:1014EC00BB60BA684FF6FF031340BB60FB681A027F
:1014FC00BB68134343F0BF6343F40033BB60044A3F
:10150C00BB68D36000BF1437BD4680BC704700BFBA
:10151C0000ED00E080B400AF044BDB681B0A03F065
:10152C0007031846BD4680BC704700BF00ED00E0C5
:10153C0080B483B000AF0346FB7197F90730002BE2
:10154C000BDBFB7903F01F02064997F907305B09A7
:10155C00012000FA02F241F8232000BF0C37BD46EF
:10156C0080BC704700E100E080B483B000AF03465C
:10157C003960FB7197F90730002B0ADB3B68DAB254
:10158C000C4997F907301201D2B20B4483F80023AF
:10159C000AE03B68DAB20849FB7903F00F03043B1D
:1015AC001201D2B20B441A7600BF0C37BD4680BC78
:1015BC00704700BF00E100E000ED00E080B489B0AE
:1015CC0000AFF860B9607A60FB6803F00703FB6159
:1015DC00FB69C3F10703042B28BF0423BB61FB6920
:1015EC000433062B02D9FB69033B00E000237B612B
:1015FC004FF0FF32BB6902FA03F3DA43BB681A40BF
:10160C007B699A404FF0FF317B6901FA03F3D943B0
:10161C007B680B40134318462437BD4680BC70478B
:10162C0080B582B000AF78607B68013BB3F1807FFE
:10163C0001D301230FE00A4A7B68013B53600F2161
:10164C004FF0FF30FFF790FF054B00229A60044BE0
:10165C0007221A60002318460837BD4680BD00BF1C
:10166C0010E000E080B582B000AF78607868FFF7DA
:10167C002DFF00BF0837BD4680BD80B586B000AFDA
:10168C000346B9607A60FB7300237B61FFF742FF6E
:10169C0078617A68B9687869FFF790FF024697F924
:1016AC000F3011461846FFF75FFF00BF1837BD46D5
:1016BC0080BD80B582B000AF0346FB7197F907304F
:1016CC001846FFF735FF00BF0837BD4680BD80B513
:1016DC0082B000AF78607868FFF7A2FF0346184627
:1016EC000837BD4680BD80B485B000AF786000235C
:1016FC00FB737B6893F82130022B08D07B680422A3
:10170C009A637B68002283F82020012320E07B6809
:10171C001B681A687B681B6822F00E021A607B68D3
:10172C001B681A687B681B6822F001021A607B68D0
:10173C001A6C7B68DB6B012101FA02F25A607B6840
:10174C00012283F821207B68002283F82020FB7B78
:10175C0018461437BD4680BC7047000080B584B075
:10176C0000AF78600023FB737B6893F82130022B69
:10177C0005D07B6804229A630123FB7351E07B68DC
:10178C001B681A687B681B6822F00E021A607B6863
:10179C001B681A687B681B6822F001021A607B6860
:1017AC001B68224A934229D07B681B68204A9342CB
:1017BC0022D07B681B681F4A93421AD07B681B6837
:1017CC001D4A934212D07B681B681C4A93420AD074
:1017DC007B681B681A4A934202D14FF480130EE0C7
:1017EC004FF080730BE04FF4803308E04FF48053DC
:1017FC0005E04FF4807302E0102300E00123114A4E
:10180C0053607B68012283F821207B68002283F8D7
:10181C0020207B685B6B002B03D07B685B6B78684C
:10182C009847FB7B18461037BD4680BD0800024028
:10183C001C000240300002404400024058000240AC
:10184C006C0002400000024080B48BB000AF7860A6
:10185C00396000237B6200233B6269E101227B6AD1
:10186C0002FA03F3FB613B681B68FA691340BB6126
:10187C00BA69FB699A4240F058813B685B689A4AA6
:10188C0093425ED0984A934275D8984A934258D066
:10189C00964A93426FD8964A934252D0944A9342B6
:1018AC0069D8944A93424CD0924A934263D8924A54
:1018BC00934246D0904A93425DD8122B2AD8122BD1
:1018CC0059D801A252F823F04F1900082919000821
:1018DC003B1900087D1900088319000883190008BA
:1018EC00831900088319000883190008831900085C
:1018FC00831900088319000883190008831900084C
:10190C00831900088319000883190008311900088D
:10191C0045190008794A934213D02CE03B68DB68E8
:10192C003B6229E03B68DB6804333B6224E03B68A4
:10193C00DB6808333B621FE03B68DB680C333B62BF
:10194C001AE03B689B68002B02D104233B6213E036
:10195C003B689B68012B05D108233B627B68FA69C5
:10196C001A6109E008233B627B68FA695A6103E05B
:10197C0000233B6200E000BFBB69FF2B01D87B68F2
:10198C0001E07B6804337B61BB69FF2B02D87B6A67
:10199C009B0002E07B6A083B9B003B617B691A68F9
:1019AC000F213B6901FA03F3DB431A40396A3B69A7
:1019BC0001FA03F31A437B691A603B685B6803F016
:1019CC008053002B00F0B1804D4B9B694C4A43F087
:1019DC00010393614A4B9B6903F00103BB60BB6835
:1019EC00484A7B6A9B08023352F82330FB607B6ABF
:1019FC0003F003039B000F2202FA03F3DB43FA68A4
:101A0C001340FB607B68404A934213D07B683F4A8B
:101A1C0093420DD07B683E4A934207D07B683D4A87
:101A2C00934201D1032306E0042304E0022302E0E5
:101A3C00012300E000237A6A02F003029200934033
:101A4C00FA681343FB602F497B6A9B080233FA68E0
:101A5C0041F823203B685B6803F48033002B06D0ED
:101A6C002D4B1A682C49BB6913430B6006E02A4BBB
:101A7C001A68BB69DB43284913400B603B685B6801
:101A8C0003F40033002B06D0234B5A682249BB6960
:101A9C0013434B6006E0204B5A68BB69DB431E497D
:101AAC0013404B603B685B6803F48013002B06D03B
:101ABC00194B9A681849BB6913438B6006E0164BA7
:101ACC009A68BB69DB43144913408B603B685B68C5
:101ADC0003F40013002B21D00F4BDA680E49BB69BD
:101AEC001343CB6021E000BF000032100000311026
:101AFC000000221000002110000012100000111034
:101B0C00001002400000014000080140000C0140A0
:101B1C000010014000140140000401400B4BDA6836
:101B2C00BB69DB4309491340CB607B6A01337B62A1
:101B3C003B681A687B6A22FA03F3002B7FF48EAEA3
:101B4C0000BF00BF2C37BD4680BC7047000401406D
:101B5C0080B485B000AF78600B467B807B689A6858
:101B6C007B881340002B02D00123FB7301E0002380
:101B7C00FB73FB7B18461437BD4680BC704780B4A2
:101B8C0083B000AF78600B467B8013467B707B780C
:101B9C00002B03D07A887B681A6103E07B881A04D7
:101BAC007B681A6100BF0C37BD4680BC704780B49F
:101BBC0085B000AF78600B467B807B68DB68FB6090
:101BCC007A88FB6813401A04FB68D9437B880B4066
:101BDC001A437B681A6100BF1437BD4680BC70473E
:101BEC0080B586B000AF78607B68002B01D10123F3
:101BFC006CE27B681B6803F00103002B00F087800C
:101C0C00924B5B6803F00C03042B0CD08F4B5B687E
:101C1C0003F00C03082B12D18C4B5B6803F480335C
:101C2C00B3F5803F0BD1894B1B6803F40033002BB9
:101C3C006CD07B685B68002B68D1012346E27B6823
:101C4C005B68B3F5803F06D1804B1B687F4A43F439
:101C5C00803313602EE07B685B68002B0CD17B4BD0
:101C6C001B687A4A23F480331360784B1B68774ADD
:101C7C0023F4802313601DE07B685B68B3F5A02F11
:101C8C000CD1724B1B68714A43F4802313606F4B69
:101C9C001B686E4A43F4803313600BE06B4B1B687C
:101CAC006A4A23F480331360684B1B68674A23F439
:101CBC00802313607B685B68002B13D0FFF7FCFB61
:101CCC00386108E0FFF7F8FB02463B69D31A642B36
:101CDC0001D90323FAE15D4B1B6803F40033002B9D
:101CEC00F0D014E0FFF7E8FB386108E0FFF7E4FB05
:101CFC0002463B69D31A642B01D90323E6E1534B0B
:101D0C001B6803F40033002BF0D100E000BF7B68AC
:101D1C001B6803F00203002B63D04C4B5B6803F091
:101D2C000C03002B0BD0494B5B6803F00C03082B06
:101D3C001CD1464B5B6803F48033002B16D1434B0C
:101D4C001B6803F00203002B05D07B681B69012B79
:101D5C0001D00123BAE13D4B1B6823F0F8027B68EC
:101D6C005B69DB00394913430B603AE07B681B6904
:101D7C00002B20D0364B01221A60FFF79DFB3861F7
:101D8C0008E0FFF799FB02463B69D31A022B01D9F5
:101D9C0003239BE12D4B1B6803F00203002BF0D0B7
:101DAC002A4B1B6823F0F8027B685B69DB00274930
:101DBC0013430B6015E0264B00221A60FFF77CFBE7
:101DCC00386108E0FFF778FB02463B69D31A022B17
:101DDC0001D903237AE11D4B1B6803F00203002B8E
:101DEC00F0D17B681B6803F00803002B3AD07B68AA
:101DFC009B69002B19D0174B01221A60FFF75CFB73
:101E0C00386108E0FFF758FB02463B69D31A022BF6
:101E1C0001D903235AE10D4B5B6A03F00203002B3B
:101E2C00F0D0012000F0D8FA1CE00A4B00221A6016
:101E3C00FFF742FB38610FE0FFF73EFB02463B69C0
:101E4C00D31A022B08D9032340E100BF0010024033
:101E5C0000004242800442429E4B5B6A03F0020344
:101E6C00002BE9D17B681B6803F00403002B00F006
:101E7C00A6800023FB75974BDB6903F08053002B86
:101E8C000DD1944BDB69934A43F08053D361914B52
:101E9C00DB6903F08053BB60BB680123FB758E4B81
:101EAC001B6803F48073002B18D18B4B1B688A4A78
:101EBC0043F480731360FFF7FFFA386108E0FFF713
:101ECC00FBFA02463B69D31A642B01D90323FDE0CC
:101EDC00814B1B6803F48073002BF0D07B68DB68AC
:101EEC00012B06D17B4B1B6A7A4A43F00103136228
:101EFC002DE07B68DB68002B0CD1764B1B6A754A96
:101F0C0023F001031362734B1B6A724A23F0040320
:101F1C0013621CE07B68DB68052B0CD16D4B1B6AD4
:101F2C006C4A43F0040313626A4B1B6A694A43F020
:101F3C00010313620BE0674B1B6A664A23F0010333
:101F4C001362644B1B6A634A23F0040313627B68BD
:101F5C00DB68002B15D0FFF7AFFA38610AE0FFF70A
:101F6C00ABFA02463B69D31A41F28832934201D94B
:101F7C000323ABE0574B1B6A03F00203002BEED09C
:101F8C0014E0FFF799FA38610AE0FFF795FA024678
:101F9C003B69D31A41F28832934201D9032395E06D
:101FAC004C4B1B6A03F00203002BEED1FB7D012B83
:101FBC0005D1484BDB69474A23F08053D3617B68DA
:101FCC00DB69002B00F08180424B5B6803F00C0353
:101FDC00082B61D07B68DB69022B46D13F4B00227A
:101FEC001A60FFF769FA386108E0FFF765FA0246F4
:101FFC003B69D31A022B01D9032367E0354B1B68CD
:10200C0003F00073002BF0D17B681B6AB3F5803FA3
:10201C0008D1304B5B6823F400327B689B682D49F8
:10202C0013434B602B4B5B6823F474127B68196A67
:10203C007B685B6A0B43274913434B60274B012298
:10204C001A60FFF739FA386108E0FFF735FA0246F3
:10205C003B69D31A022B01D9032337E01D4B1B68B4
:10206C0003F00073002BF0D02FE01C4B00221A6001
:10207C00FFF722FA386108E0FFF71EFA02463B69C7
:10208C00D31A022B01D9032320E0124B1B6803F057
:10209C000073002BF0D118E07B68DB69012B01D1B8
:1020AC00012313E00B4B5B68FB60FB6803F480328D
:1020BC007B681B6A9A4206D1FB6803F470127B683A
:1020CC005B6A9A4201D0012300E0002318461837BE
:1020DC00BD4680BD001002400070004060004242CE
:1020EC0080B584B000AF786039607B68002B01D17B
:1020FC000123D0E06A4B1B6803F007033A689A424D
:10210C0010D9674B1B6823F0070265493B681343E2
:10211C000B60634B1B6803F007033A689A4201D0CB
:10212C000123B8E07B681B6803F00203002B20D06E
:10213C007B681B6803F00403002B05D0594B5B68CC
:10214C00584A43F4E06353607B681B6803F0080350
:10215C00002B05D0534B5B68524A43F460535360D9
:10216C00504B5B6823F0F0027B689B684D4913432E
:10217C004B607B681B6803F00103002B40D07B682D
:10218C005B68012B07D1474B1B6803F40033002B12
:10219C0015D101237FE07B685B68022B07D1414B93
:1021AC001B6803F00073002B09D1012373E03D4B36
:1021BC001B6803F00203002B01D101236BE0394BA8
:1021CC005B6823F003027B685B68364913434B6002
:1021DC00FFF772F9F8600AE0FFF76EF90246FB6848
:1021EC00D31A41F28832934201D9032353E02D4B89
:1021FC005B6803F00C027B685B689B009A42EBD136
:10220C00274B1B6803F007033A689A4210D2244B01
:10221C001B6823F0070222493B6813430B60204BD9
:10222C001B6803F007033A689A4201D0012332E09D
:10223C007B681B6803F00403002B08D0194B5B6808
:10224C0023F4E0627B68DB68164913434B607B68C0
:10225C001B6803F00803002B09D0124B5B6823F4B6
:10226C0060527B681B69DB000E4913434B6000F026
:10227C0021F802460B4B5B681B0903F00F030A495C
:10228C00CB5C22FA03F3094A1360094B1B6818460E
:10229C00FFF7D0F8002318461037BD4680BD00BFAD
:1022AC0000200240001002400C3D000848000020B5
:1022BC004C00002090B48AB000AF2A4B3C1D0FCBD1
:1022CC0084E80F0040F201233B800023FB610023D4
:1022DC00BB6100237B6200237B6100233B62224BAA
:1022EC005B68FB61FB6903F00C03042B02D0082B29
:1022FC0003D02DE01D4B3B622DE0FB699B0C03F0E2
:10230C000F0307F12802134413F8243C7B61FB698B
:10231C0003F48033002B13D0134B5B685B0C03F07E
:10232C00010307F12802134413F8283CBB617B69B5
:10233C000E4A02FB03F2BB69B2FBF3F37B6204E0CF
:10234C007B690B4A02FB03F37B627B6A3B6202E014
:10235C00064B3B6200BF3B6A18462837BD4690BC13
:10236C00704700BFFC3C00080010024000127A00CD
:10237C0000093D0080B400AF024B1B681846BD46F7
:10238C0080BC70474800002080B500AFFFF7F2FF1B
:10239C000246054B5B681B0A03F007030349CB5C41
:1023AC0022FA03F3184680BD001002401C3D0008C1
:1023BC0080B500AFFFF7DEFF0246054B5B68DB0A1A
:1023CC0003F007030349CB5C22FA03F3184680BDE4
:1023DC00001002401C3D000880B485B000AF78604E
:1023EC000A4B1B680A4AA2FB03235B0A7A6802FBAE
:1023FC0003F3FB6000BFFB685A1EFA60002BF9D197
:10240C0000BF00BF1437BD4680BC70474800002099
:10241C00D34D621080B582B000AF78607B68002B22
:10242C0001D1012341E07B6893F83D30DBB2002BF6
:10243C0006D17B68002283F83C207868FEF7AEFE5C
:10244C007B68022283F83D207B681A687B68043322
:10245C001946104600F028FC7B68012283F84620C0
:10246C007B68012283F83E207B68012283F83F20A1
:10247C007B68012283F840207B68012283F841208D
:10248C007B68012283F842207B68012283F8432079
:10249C007B68012283F844207B68012283F8452065
:1024AC007B68012283F83D20002318460837BD467F
:1024BC0080BD000080B485B000AF78607B6893F875
:1024CC003D30DBB2012B01D001233AE07B680222C4
:1024DC0083F83D207B681B68DA687B681B6842F0D8
:1024EC000102DA607B681B68184A93420ED07B6845
:1024FC001B68B3F1804F09D07B681B68144A934268
:10250C0004D07B681B68134A934211D17B681B680B
:10251C009B6803F00703FB60FB68062B10D07B68FD
:10252C001B681A687B681B6842F001021A6007E09E
:10253C007B681B681A687B681B6842F001021A6092
:10254C00002318461437BD4680BC7047002C014050
:10255C00000400400008004080B582B000AF7860F5
:10256C007B68002B01D1012341E07B6893F83D305F
:10257C00DBB2002B06D17B68002283F83C20786804
:10258C0000F039F87B68022283F83D207B681A68DA
:10259C007B6804331946104600F086FB7B680122E9
:1025AC0083F846207B68012283F83E207B68012259
:1025BC0083F83F207B68012283F840207B6801224E
:1025CC0083F841207B68012283F842207B6801223A
:1025DC0083F843207B68012283F844207B68012226
:1025EC0083F845207B68012283F83D2000231846A0
:1025FC000837BD4680BD80B483B000AF786000BFA3
:10260C000C37BD4680BC704780B584B000AF786095
:10261C0039603B68002B09D17B6893F83E30DBB204
:10262C00012B14BF01230023DBB222E03B68042BF7
:10263C0009D17B6893F83F30DBB2012B14BF012327
:10264C000023DBB215E03B68082B09D17B6893F8BB
:10265C004030DBB2012B14BF01230023DBB208E0B6
:10266C007B6893F84130DBB2012B14BF01230023AC
:10267C00DBB2002B01D001235EE03B68002B04D1C0
:10268C007B68022283F83E2013E03B68042B04D1C4
:10269C007B68022283F83F200BE03B68082B04D1B7
:1026AC007B68022283F8402003E07B68022283F8D7
:1026BC0041207B681B6801223968184600F074FDC4
:1026CC007B681B681E4A934207D17B681B685A6C57
:1026DC007B681B6842F400425A647B681B68184A8A
:1026EC0093420ED07B681B68B3F1804F09D07B6896
:1026FC001B68144A934204D07B681B68124A9342AD
:10270C0011D17B681B689B6803F00703FB60FB68B7
:10271C00062B10D07B681B681A687B681B6842F01C
:10272C0001021A6007E07B681B681A687B681B68EB
:10273C0042F001021A60002318461037BD4680BDD6
:10274C00002C0140000400400008004080B582B01D
:10275C0000AF78607B681B681B6903F00203022BD7
:10276C0022D17B681B68DB6803F00203022B1BD1B0
:10277C007B681B686FF002021A617B6801221A7772
:10278C007B681B689B6903F00303002B03D07868FC
:10279C0000F06FFA05E0786800F062FA786800F0F3
:1027AC0071FA7B6800221A777B681B681B6903F03F
:1027BC000403042B22D17B681B68DB6803F0040341
:1027CC00042B1BD17B681B686FF004021A617B68B9
:1027DC0002221A777B681B689B6903F44073002BF9
:1027EC0003D0786800F045FA05E0786800F038FA14
:1027FC00786800F047FA7B6800221A777B681B68C0
:10280C001B6903F00803082B22D17B681B68DB686B
:10281C0003F00803082B1BD17B681B686FF00802C0
:10282C001A617B6804221A777B681B68DB6903F0EA
:10283C000303002B03D0786800F01BFA05E07868DE
:10284C0000F00EFA786800F01DFA7B6800221A7707
:10285C007B681B681B6903F01003102B22D17B686B
:10286C001B68DB6803F01003102B1BD17B681B6803
:10287C006FF010021A617B6808221A777B681B685C
:10288C00DB6903F44073002B03D0786800F0F1F996
:10289C0005E0786800F0E4F9786800F0F3F97B68FB
:1028AC0000221A777B681B681B6903F00103012B5C
:1028BC000ED17B681B68DB6803F00103012B07D189
:1028CC007B681B686FF001021A617868FEF796F955
:1028DC007B681B681B6903F08003802B0ED17B681F
:1028EC001B68DB6803F08003802B07D17B681B68B7
:1028FC006FF080021A61786800F0E1FC7B681B685D
:10290C001B6903F04003402B0ED17B681B68DB680E
:10291C0003F04003402B07D17B681B686FF040022B
:10292C001A61786800F0B7F97B681B681B6903F0C3
:10293C002003202B0ED17B681B68DB6803F020037F
:10294C00202B07D17B681B686FF020021A61786816
:10295C0000F0ACFC00BF0837BD4680BD80B584B02C
:10296C0000AFF860B9607A60FB6893F83C30012BDB
:10297C0001D10223ACE0FB68012283F83C207B6888
:10298C000C2B00F29F8001A252F823F0CD290008F5
:10299C00D12A0008D12A0008D12A00080D2A0008E3
:1029AC00D12A0008D12A0008D12A00084F2A000891
:1029BC00D12A0008D12A0008D12A00088F2A000841
:1029CC00FB681B68B968184600F0D0F9FB681B68F7
:1029DC009A69FB681B6842F008029A61FB681B68E5
:1029EC009A69FB681B6822F004029A61FB681B68F9
:1029FC009969BB681A69FB681B680A439A6162E0B3
:102A0C00FB681B68B968184600F016FAFB681B686F
:102A1C009A69FB681B6842F400629A61FB681B6848
:102A2C009A69FB681B6822F480629A61FB681B68D8
:102A3C009969BB681B691A02FB681B680A439A6197
:102A4C0041E0FB681B68B968184600F05FFAFB6848
:102A5C001B68DA69FB681B6842F00802DA61FB68E4
:102A6C001B68DA69FB681B6822F00402DA61FB68F8
:102A7C001B68D969BB681A69FB681B680A43DA6171
:102A8C0021E0FB681B68B968184600F0A9FAFB68DE
:102A9C001B68DA69FB681B6842F40062DA61FB6848
:102AAC001B68DA69FB681B6822F48062DA61FB68D8
:102ABC001B68D969BB681B691A02FB681B680A434F
:102ACC00DA6100E000BFFB68002283F83C200023A1
:102ADC0018461037BD4680BD80B584B000AF786015
:102AEC0039607B6893F83C30012B01D10223B3E0B1
:102AFC007B68012283F83C207B68022283F83D200E
:102B0C007B681B689B68FB60FB6823F07703FB60AA
:102B1C00FB6823F47F43FB607B681B68FA689A6050
:102B2C003B681B68B3F5005F3ED0B3F5005F00F265
:102B3C008780B3F5805F00F08580B3F5805F7FD828
:102B4C00702B1AD0702B7BD8602B50D0602B77D881
:102B5C00502B3CD0502B73D8402B58D0402B6FD8D7
:102B6C00302B64D0302B6BD8202B60D0202B67D827
:102B7C00002B5CD0102B5AD062E07B6818683B6845
:102B8C0099683B685A683B68DB6800F0EEFA7B6832
:102B9C001B689B68FB60FB6843F07703FB607B68FA
:102BAC001B68FA689A604EE07B6818683B68996805
:102BBC003B685A683B68DB6800F0D7FA7B681B6897
:102BCC009A687B681B6842F480429A603BE07B68A1
:102BDC0018683B6859683B68DB681A4600F04EFA87
:102BEC007B681B685021184600F0A5FA2BE07B6827
:102BFC0018683B6859683B68DB681A4600F06CFA49
:102C0C007B681B686021184600F095FA1BE07B6816
:102C1C0018683B6859683B68DB681A4600F02EFA66
:102C2C007B681B684021184600F085FA0BE07B6836
:102C3C001A683B681B681946104600F07CFA02E0E3
:102C4C0000BF00E000BF7B68012283F83D207B6859
:102C5C00002283F83C20002318461037BD4680BD67
:102C6C0080B483B000AF786000BF0C37BD4680BC29
:102C7C00704780B483B000AF786000BF0C37BD469E
:102C8C0080BC704780B483B000AF786000BF0C3755
:102C9C00BD4680BC704780B483B000AF786000BF85
:102CAC000C37BD4680BC704780B485B000AF7860EF
:102CBC0039607B681B68FB607B68294A93420BD0A8
:102CCC007B68B3F1804F07D07B68264A934203D0D0
:102CDC007B68254A934208D1FB6823F07003FB60A4
:102CEC003B685B68FA681343FB607B681C4A934241
:102CFC000BD07B68B3F1804F07D07B68194A9342A5
:102D0C0003D07B68184A934208D1FB6823F44073C4
:102D1C00FB603B68DB68FA681343FB60FB6823F0DD
:102D2C0080023B685B691343FB607B68FA681A603E
:102D3C003B689A687B68DA623B681A687B689A62BF
:102D4C007B68074A934203D13B681A697B681A6314
:102D5C007B6801225A6100BF1437BD4680BC7047A6
:102D6C00002C0140000400400008004080B487B0F3
:102D7C0000AF786039607B681B6A23F001027B68C6
:102D8C001A627B681B6A7B617B685B683B617B6852
:102D9C009B69FB60FB6823F07003FB60FB6823F00E
:102DAC000303FB603B681B68FA681343FB607B6999
:102DBC0023F002037B613B689B687A6913437B6158
:102DCC007B681C4A93420CD17B6923F008037B611E
:102DDC003B68DB687A6913437B617B6923F00403EE
:102DEC007B617B68134A934211D13B6923F4807356
:102DFC003B613B6923F400733B613B685B693A6957
:102E0C0013433B613B689B693A6913433B617B68A5
:102E1C003A695A607B68FA689A613B685A687B68C1
:102E2C005A637B687A691A6200BF1C37BD4680BC46
:102E3C00704700BF002C014080B487B000AF7860B1
:102E4C0039607B681B6A23F010027B681A627B680E
:102E5C001B6A7B617B685B683B617B689B69FB6081
:102E6C00FB6823F4E043FB60FB6823F44073FB60D6
:102E7C003B681B681B02FA681343FB607B6923F0F9
:102E8C0020037B613B689B681B017A6913437B6160
:102E9C007B681D4A93420DD17B6923F080037B61D3
:102EAC003B68DB681B017A6913437B617B6923F008
:102EBC0040037B617B68144A934213D13B6923F432
:102ECC0080633B613B6923F400633B613B685B6956
:102EDC009B003A6913433B613B689B699B003A69D1
:102EEC0013433B617B683A695A607B68FA689A6164
:102EFC003B685A687B689A637B687A691A6200BF80
:102F0C001C37BD4680BC7047002C014080B487B094
:102F1C0000AF786039607B681B6A23F480727B6831
:102F2C001A627B681B6A7B617B685B683B617B68B0
:102F3C00DB69FB60FB6823F07003FB60FB6823F02C
:102F4C000303FB603B681B68FA681343FB607B69F7
:102F5C0023F400737B613B689B681B027A69134303
:102F6C007B617B681D4A93420DD17B6923F400631E
:102F7C007B613B68DB681B027A6913437B617B696D
:102F8C0023F480637B617B68144A934213D13B69C1
:102F9C0023F480533B613B6923F400533B613B6852
:102FAC005B691B013A6913433B613B689B691B01DD
:102FBC003A6913433B617B683A695A607B68FA68EB
:102FCC00DA613B685A687B68DA637B687A691A62F3
:102FDC0000BF1C37BD4680BC704700BF002C0140B1
:102FEC0080B487B000AF786039607B681B6A23F4CB
:102FFC0080527B681A627B681B6A3B617B685B68EA
:10300C007B617B68DB69FB60FB6823F4E043FB605E
:10301C00FB6823F44073FB603B681B681B02FA6877
:10302C001343FB603B6923F400533B613B689B6893
:10303C001B033A6913433B617B680F4A934209D1E6
:10304C007B6923F480437B613B685B699B017A69F4
:10305C0013437B617B687A695A607B68FA68DA6132
:10306C003B685A687B681A647B683A691A6200BFCD
:10307C001C37BD4680BC7047002C014080B487B023
:10308C0000AFF860B9607A60FB681B6A7B61FB6813
:10309C001B6A23F00102FB681A62FB689B693B61A7
:1030AC003B6923F0F0033B617B681B013A691343D6
:1030BC003B617B6923F00A037B617A69BB6813432C
:1030CC007B61FB683A699A61FB687A691A6200BF96
:1030DC001C37BD4680BC704780B487B000AFF86029
:1030EC00B9607A60FB681B6A23F01002FB681A62F5
:1030FC00FB689B697B61FB681B6A3B617B6923F402
:10310C0070437B617B681B037A6913437B613B696A
:10311C0023F0A0033B61BB681B013A6913433B617D
:10312C00FB687A699A61FB683A691A6200BF1C37BE
:10313C00BD4680BC704780B485B000AF7860396004
:10314C007B689B68FB60FB6823F07003FB603A684C
:10315C00FB68134343F00703FB607B68FA689A60D3
:10316C0000BF1437BD4680BC704780B487B000AF39
:10317C00F860B9607A603B60FB689B687B617B6937
:10318C0023F47F437B613B681A027B681A43BB685C
:10319C0013437A6913437B61FB687A699A6000BFB9
:1031AC001C37BD4680BC704780B487B000AFF86058
:1031BC00B9607A60BB6803F01F03012202FA03F3C3
:1031CC007B61FB681A6A7B69DB431A40FB681A62F5
:1031DC00FB681A6ABB6803F01F03796801FA03F3F2
:1031EC001A43FB681A6200BF1C37BD4680BC70478F
:1031FC0080B485B000AF786039607B6893F83C3060
:10320C00012B01D1022346E07B68012283F83C208C
:10321C007B68022283F83D207B681B685B68FB603F
:10322C007B681B689B68BB60FB6823F07003FB60CA
:10323C003B681B68FA681343FB607B681B68FA6881
:10324C005A607B681B68164A93420ED07B681B68D9
:10325C00B3F1804F09D07B681B68124A934204D0AB
:10326C007B681B68104A93420CD1BB6823F0800327
:10327C00BB603B685B68BA681343BB607B681B68C8
:10328C00BA689A607B68012283F83D207B68002233
:10329C0083F83C20002318461437BD4680BC704789
:1032AC00002C0140000400400008004080B483B0B2
:1032BC0000AF786000BF0C37BD4680BC704780B44F
:1032CC0083B000AF786000BF0C37BD4680BC704740
:1032DC0080B582B000AF78607B68002B01D10123F0
:1032EC003FE07B6893F83D30DBB2002B06D17B6866
:1032FC00002283F83C207868FDF7C2FF7B6824220B
:10330C0083F83D207B681B68DA687B681B6822F4B5
:10331C000052DA60786800F025FC7B681B681A693B
:10332C007B681B6822F490421A617B681B685A699F
:10333C007B681B6822F02A025A617B681B68DA687A
:10334C007B681B6842F40052DA607B6800221A64C6
:10335C007B68202283F83D207B68202283F83E2066
:10336C00002318460837BD4680BD80B58AB002AF31
:10337C00F860B9603B601346FB8000237B61FB68FF
:10338C0093F83D30DBB2202B7CD1BB68002B02D0F4
:10339C00FB88002B01D1012375E0FB6893F83C30CE
:1033AC00012B01D102236EE0FB68012283F83C2043
:1033BC00FB6800221A64FB68212283F83D20FEF78B
:1033CC007BF87861FB68FA889A84FB68FA88DA845F
:1033DC00FB689B68B3F5805F08D1FB681B69002B09
:1033EC0004D10023FB61BB68BB6103E0BB68FB61DC
:1033FC000023BB61FB68002283F83C202AE03B6879
:10340C0000937B6900228021F86800F011FA0346D2
:10341C00002B01D0032336E0FB69002B0BD1BB69D9
:10342C001B881A46FB681B68C2F308025A60BB690A
:10343C000233BB6107E0FB691A78FB681B685A60B2
:10344C00FB690133FB61FB68DB8C9BB2013B9AB2DD
:10345C00FB68DA84FB68DB8C9BB2002BCFD13B681A
:10346C0000937B6900224021F86800F0E1F90346E3
:10347C00002B01D0032306E0FB68202283F83D20BB
:10348C00002300E0022318462037BD4680BD000013
:10349C0080B58AB000AF78607B681B681B687B6264
:1034AC007B681B68DB683B627B681B685B69FB6144
:1034BC000023BB6100237B617B6A03F00F03BB61BC
:1034CC00BB69002B0DD17B6A03F02003002B08D0C5
:1034DC003B6A03F02003002B03D0786800F099FAC4
:1034EC007BE1BB69002B00F0B180FB6903F00103A9
:1034FC00002B05D13B6A03F49073002B00F0A680DF
:10350C007B6A03F00103002B0AD03B6A03F480733F
:10351C00002B05D07B681B6C43F001027B681A649E
:10352C007B6A03F00403002B0AD0FB6903F0010350
:10353C00002B05D07B681B6C43F002027B681A647D
:10354C007B6A03F00203002B0AD0FB6903F0010332
:10355C00002B05D07B681B6C43F004027B681A645B
:10356C007B6A03F00803002B0FD03B6A03F02003A7
:10357C00002B04D1FB6903F00103002B05D07B6801
:10358C001B6C43F008027B681A647B681B6C002B75
:10359C0000F01E817B6A03F02003002B07D03B6AEE
:1035AC0003F02003002B02D0786800F032FA7B681D
:1035BC001B685B6903F04003002B14BF012300233D
:1035CC00DBB27B617B681B6C03F00803002B02D120
:1035DC007B69002B31D0786800F074F97B681B682C
:1035EC005B6903F04003002B23D07B681B685A698E
:1035FC007B681B6822F040025A617B689B6B002B36
:10360C0013D07B689B6B764A5A637B689B6B18461E
:10361C00FEF7A4F80346002B16D07B689B6B5B6B04
:10362C007A68926B104698470EE0786800F0ECF8D8
:10363C000AE0786800F0E8F806E0786800F0E4F852
:10364C007B6800221A64C3E000BFC1E07B681B6B7F
:10365C00012B40F0A1807B6A03F01003002B00F0DB
:10366C009B803B6A03F01003002B00F09580002335
:10367C00FB607B681B681B68FB607B681B685B6876
:10368C00FB60FB687B681B685B6903F04003002BE5
:10369C004ED07B689B6B1B685B683B823B8A002B24
:1036AC0000F098807B689B8D3A8A9A4280F09280D9
:1036BC007B683A8ADA857B689B6B9B69202B2BD0C5
:1036CC007B681B68DA687B681B6822F48072DA609E
:1036DC007B681B685A697B681B6822F001025A617F
:1036EC007B681B685A697B681B6822F040025A6130
:1036FC007B68202283F83E207B6800221A637B685B
:10370C001B68DA687B681B6822F01002DA607B6841
:10371C009B6B1846FDF7E7FF7B689A8D7B68DB8D0A
:10372C009BB2D31A9BB21946786800F076F851E038
:10373C007B689A8D7B68DB8D9BB2D31A7B827B680E
:10374C00DB8D9BB2002B47D07B8A002B44D07B684F
:10375C001B68DA687B681B6822F49072DA607B68FD
:10376C001B685A697B681B6822F001025A617B68EE
:10377C00202283F83E207B6800221A637B681B683A
:10378C00DA687B681B6822F01002DA607B8A1946C3
:10379C00786800F042F81FE07B6A03F08003002B8E
:1037AC0008D03B6A03F08003002B03D0786800F04C
:1037BC00C9F812E07B6A03F04003002B0DD03B6A82
:1037CC0003F04003002B08D0786800F00AF904E0FD
:1037DC0000BF02E000BF00E000BF2837BD4680BD3F
:1037EC002939000880B483B000AF786000BF0C3773
:1037FC00BD4680BC704780B483B000AF786000BF1A
:10380C000C37BD4680BC704780B483B000AF786085
:10381C0000BF0C37BD4680BC704780B483B000AF8E
:10382C0078600B467B8000BF0C37BD4680BC704770
:10383C0080B584B000AFF860B9603B601346FB7193
:10384C002CE0BB69B3F1FF3F28D0BB69002B07D03C
:10385C00FDF732FE02463B68D31ABA699A421DD272
:10386C00FB681B68DA68FB681B6822F4D072DA60AC
:10387C00FB681B685A69FB681B6822F001025A61DD
:10388C00FB68202283F83D20FB68202283F83E2031
:10389C00FB68002283F83C2003230FE0FB681B68C5
:1038AC001A68BB681340BA689A420CBF0123002304
:1038BC00DBB21A46FB799A42C3D000231846103764
:1038CC00BD4680BD80B483B000AF78607B681B6858
:1038DC00DA687B681B6822F49072DA607B681B687C
:1038EC005A697B681B6822F001025A617B681B6B6A
:1038FC00012B07D17B681B68DA687B681B6822F098
:10390C001002DA607B68202283F83E207B6800225C
:10391C001A6300BF0C37BD4680BC704780B584B0BD
:10392C0000AF78607B685B6AFB60FB680022DA851D
:10393C00FB680022DA84F868FFF766FF00BF1037D7
:10394C00BD4680BD80B485B000AF78607B6893F8CD
:10395C003D30DBB2212B3ED17B689B68B3F5805F99
:10396C0014D17B681B69002B10D17B681B6AFB6030
:10397C00FB681B881A467B681B68C2F308025A60F6
:10398C007B681B6A9A1C7B681A6208E07B681B6A5E
:10399C00591C7A6811621A787B681B685A607B68BC
:1039AC00DB8C9BB2013B9BB27A681946D184002B0D
:1039BC000FD17B681B68DA687B681B6822F0800279
:1039CC00DA607B681B68DA687B681B6842F040022F
:1039DC00DA60002300E0022318461437BD4680BC91
:1039EC00704780B582B000AF78607B681B68DA687E
:1039FC007B681B6822F04002DA607B68202283F827
:103A0C003D207868FFF7EEFE002318460837BD46C8
:103A1C0080BD80B586B000AF78607B6893F83E308F
:103A2C00DBB2222B40F099807B689B68B3F5805FFA
:103A3C0017D17B681B69002B13D100237B617B683A
:103A4C009B6A3B617B681B685B689BB2C3F3080392
:103A5C009AB23B691A807B689B6A9A1C7B689A6253
:103A6C0026E07B689B6A7B6100233B617B689B68DB
:103A7C00B3F5805F07D07B689B68002B0AD17B680D
:103A8C001B69002B06D17B681B685B68DAB27B690B
:103A9C001A7008E07B681B685B68DBB203F07F037D
:103AAC00DAB27B691A707B689B6A5A1C7B689A62D3
:103ABC007B68DB8D9BB2013B9BB27A681946D18542
:103ACC00002B48D17B681B68DA687B681B6822F086
:103ADC002002DA607B681B68DA687B681B6822F45A
:103AEC008072DA607B681B685A697B681B6822F0FD
:103AFC0001025A617B68202283F83E207B681B6B95
:103B0C00012B23D17B6800221A637B681B68DA685F
:103B1C007B681B6822F01002DA607B681B681B68EC
:103B2C0003F01003102B0AD10023FB607B681B6889
:103B3C001B68FB607B681B685B68FB60FB687B68D1
:103B4C009B8D19467868FFF768FE02E07868FFF7EE
:103B5C0052FE002302E0002300E00223184618372F
:103B6C00BD4680BD80B584B000AF78607B681B68B3
:103B7C001B6923F440517B68DA687B681B680A4335
:103B8C001A617B689A687B681B691A437B685B695E
:103B9C001343BB607B681B68DB6823F4B05323F0D2
:103BAC000C037A681268B9680B43D3607B681B6896
:103BBC005B6923F440717B689A697B681B680A43D4
:103BCC005A617B681B682C4A934203D1FEF7F0FBC9
:103BDC00F86002E0FEF7D8FBF860FA6813469B0029
:103BEC0013449A001A447B685B689B00B2FBF3F3A6
:103BFC00224AA2FB03235B091901FA6813469B00B6
:103C0C0013449A001A447B685B689B00B2FBF3F286
:103C1C001A4BA3FB02035B09642000FB03F3D31ACA
:103C2C001B013233154AA2FB03235B0903F0F0039B
:103C3C001944FA6813469B0013449A001A447B6893
:103C4C005B689B00B2FBF3F20C4BA3FB02035B091A
:103C5C00642000FB03F3D31A1B013233074AA2FB87
:103C6C0003235B0903F00F027B681B680A449A600C
:103C7C0000BF1037BD4680BD003801401F85EB5199
:103C8C0070B500260C4D0D4C641BA410A64209D136
:103C9C0000F022F800260A4D0A4C641BA410A64220
:103CAC0005D170BD55F8043B98470136EEE755F841
:103CBC00043B98470136F2E7243D0008243D0008F8
:103CCC00243D0008283D000803460244934200D1DD
:103CDC00704703F8011BF9E7F8B500BFF8BC08BC46
:103CEC009E467047F8B500BFF8BC08BC9E467047AE
:103CFC0002030405060708090A0B0C0D0E0F101021
:103D0C00000000000000000001020304060708097F
:083D1C00000000000102030495
:043D24003101000861
:043D28000D01000881
:103D2C00070000000400000003000000F401000084
:103D3C0021375345473A20202300000000000000A3
:103D4C000000000000000000000000000000000067
:103D5C000000000000000000000000000000000057
:103D6C00000000000A0000000024F4001000000015
:043D7C000100000042
:04000005080013C913
:00000001FF
